{"src/CreateX.sol":{"CreateX":{"abi":[{"inputs":[{"internalType":"address","name":"emitter","type":"address"}],"name":"FailedContractCreation","type":"error"},{"inputs":[{"internalType":"address","name":"emitter","type":"address"},{"internalType":"bytes","name":"revertData","type":"bytes"}],"name":"FailedContractInitialisation","type":"error"},{"inputs":[{"internalType":"address","name":"emitter","type":"address"},{"internalType":"bytes","name":"revertData","type":"bytes"}],"name":"FailedEtherTransfer","type":"error"},{"inputs":[{"internalType":"address","name":"emitter","type":"address"}],"name":"InvalidNonceValue","type":"error"},{"inputs":[{"internalType":"address","name":"emitter","type":"address"}],"name":"InvalidSalt","type":"error"},{"anonymous":false,"inputs":[{"indexed":true,"internalType":"address","name":"newContract","type":"address"},{"indexed":true,"internalType":"bytes32","name":"salt","type":"bytes32"}],"name":"ContractCreation","type":"event"},{"anonymous":false,"inputs":[{"indexed":true,"internalType":"address","name":"newContract","type":"address"}],"name":"ContractCreation","type":"event"},{"anonymous":false,"inputs":[{"indexed":true,"internalType":"address","name":"newContract","type":"address"},{"indexed":true,"internalType":"bytes32","name":"salt","type":"bytes32"}],"name":"Create3ProxyContractCreation","type":"event"},{"inputs":[{"internalType":"bytes32","name":"salt","type":"bytes32"},{"internalType":"bytes32","name":"initCodeHash","type":"bytes32"}],"name":"computeCreate2Address","outputs":[{"internalType":"address","name":"computedAddress","type":"address"}],"stateMutability":"view","type":"function"},{"inputs":[{"internalType":"bytes32","name":"salt","type":"bytes32"},{"internalType":"bytes32","name":"initCodeHash","type":"bytes32"},{"internalType":"address","name":"deployer","type":"address"}],"name":"computeCreate2Address","outputs":[{"internalType":"address","name":"computedAddress","type":"address"}],"stateMutability":"pure","type":"function"},{"inputs":[{"internalType":"bytes32","name":"salt","type":"bytes32"},{"internalType":"address","name":"deployer","type":"address"}],"name":"computeCreate3Address","outputs":[{"internalType":"address","name":"computedAddress","type":"address"}],"stateMutability":"pure","type":"function"},{"inputs":[{"internalType":"bytes32","name":"salt","type":"bytes32"}],"name":"computeCreate3Address","outputs":[{"internalType":"address","name":"computedAddress","type":"address"}],"stateMutability":"view","type":"function"},{"inputs":[{"internalType":"uint256","name":"nonce","type":"uint256"}],"name":"computeCreateAddress","outputs":[{"internalType":"address","name":"computedAddress","type":"address"}],"stateMutability":"view","type":"function"},{"inputs":[{"internalType":"address","name":"deployer","type":"address"},{"internalType":"uint256","name":"nonce","type":"uint256"}],"name":"computeCreateAddress","outputs":[{"internalType":"address","name":"computedAddress","type":"address"}],"stateMutability":"view","type":"function"},{"inputs":[{"internalType":"bytes","name":"initCode","type":"bytes"}],"name":"deployCreate","outputs":[{"internalType":"address","name":"newContract","type":"address"}],"stateMutability":"payable","type":"function"},{"inputs":[{"internalType":"bytes32","name":"salt","type":"bytes32"},{"internalType":"bytes","name":"initCode","type":"bytes"}],"name":"deployCreate2","outputs":[{"internalType":"address","name":"newContract","type":"address"}],"stateMutability":"payable","type":"function"},{"inputs":[{"internalType":"bytes","name":"initCode","type":"bytes"}],"name":"deployCreate2","outputs":[{"internalType":"address","name":"newContract","type":"address"}],"stateMutability":"payable","type":"function"},{"inputs":[{"internalType":"bytes32","name":"salt","type":"bytes32"},{"internalType":"bytes","name":"initCode","type":"bytes"},{"internalType":"bytes","name":"data","type":"bytes"},{"components":[{"internalType":"uint256","name":"constructorAmount","type":"uint256"},{"internalType":"uint256","name":"initCallAmount","type":"uint256"}],"internalType":"struct CreateX.Values","name":"values","type":"tuple"},{"internalType":"address","name":"refundAddress","type":"address"}],"name":"deployCreate2AndInit","outputs":[{"internalType":"address","name":"newContract","type":"address"}],"stateMutability":"payable","type":"function"},{"inputs":[{"internalType":"bytes","name":"initCode","type":"bytes"},{"internalType":"bytes","name":"data","type":"bytes"},{"components":[{"internalType":"uint256","name":"constructorAmount","type":"uint256"},{"internalType":"uint256","name":"initCallAmount","type":"uint256"}],"internalType":"struct CreateX.Values","name":"values","type":"tuple"}],"name":"deployCreate2AndInit","outputs":[{"internalType":"address","name":"newContract","type":"address"}],"stateMutability":"payable","type":"function"},{"inputs":[{"internalType":"bytes","name":"initCode","type":"bytes"},{"internalType":"bytes","name":"data","type":"bytes"},{"components":[{"internalType":"uint256","name":"constructorAmount","type":"uint256"},{"internalType":"uint256","name":"initCallAmount","type":"uint256"}],"internalType":"struct CreateX.Values","name":"values","type":"tuple"},{"internalType":"address","name":"refundAddress","type":"address"}],"name":"deployCreate2AndInit","outputs":[{"internalType":"address","name":"newContract","type":"address"}],"stateMutability":"payable","type":"function"},{"inputs":[{"internalType":"bytes32","name":"salt","type":"bytes32"},{"internalType":"bytes","name":"initCode","type":"bytes"},{"internalType":"bytes","name":"data","type":"bytes"},{"components":[{"internalType":"uint256","name":"constructorAmount","type":"uint256"},{"internalType":"uint256","name":"initCallAmount","type":"uint256"}],"internalType":"struct CreateX.Values","name":"values","type":"tuple"}],"name":"deployCreate2AndInit","outputs":[{"internalType":"address","name":"newContract","type":"address"}],"stateMutability":"payable","type":"function"},{"inputs":[{"internalType":"bytes32","name":"salt","type":"bytes32"},{"internalType":"address","name":"implementation","type":"address"},{"internalType":"bytes","name":"data","type":"bytes"}],"name":"deployCreate2Clone","outputs":[{"internalType":"address","name":"proxy","type":"address"}],"stateMutability":"payable","type":"function"},{"inputs":[{"internalType":"address","name":"implementation","type":"address"},{"internalType":"bytes","name":"data","type":"bytes"}],"name":"deployCreate2Clone","outputs":[{"internalType":"address","name":"proxy","type":"address"}],"stateMutability":"payable","type":"function"},{"inputs":[{"internalType":"bytes","name":"initCode","type":"bytes"}],"name":"deployCreate3","outputs":[{"internalType":"address","name":"newContract","type":"address"}],"stateMutability":"payable","type":"function"},{"inputs":[{"internalType":"bytes32","name":"salt","type":"bytes32"},{"internalType":"bytes","name":"initCode","type":"bytes"}],"name":"deployCreate3","outputs":[{"internalType":"address","name":"newContract","type":"address"}],"stateMutability":"payable","type":"function"},{"inputs":[{"internalType":"bytes32","name":"salt","type":"bytes32"},{"internalType":"bytes","name":"initCode","type":"bytes"},{"internalType":"bytes","name":"data","type":"bytes"},{"components":[{"internalType":"uint256","name":"constructorAmount","type":"uint256"},{"internalType":"uint256","name":"initCallAmount","type":"uint256"}],"internalType":"struct CreateX.Values","name":"values","type":"tuple"}],"name":"deployCreate3AndInit","outputs":[{"internalType":"address","name":"newContract","type":"address"}],"stateMutability":"payable","type":"function"},{"inputs":[{"internalType":"bytes","name":"initCode","type":"bytes"},{"internalType":"bytes","name":"data","type":"bytes"},{"components":[{"internalType":"uint256","name":"constructorAmount","type":"uint256"},{"internalType":"uint256","name":"initCallAmount","type":"uint256"}],"internalType":"struct CreateX.Values","name":"values","type":"tuple"}],"name":"deployCreate3AndInit","outputs":[{"internalType":"address","name":"newContract","type":"address"}],"stateMutability":"payable","type":"function"},{"inputs":[{"internalType":"bytes32","name":"salt","type":"bytes32"},{"internalType":"bytes","name":"initCode","type":"bytes"},{"internalType":"bytes","name":"data","type":"bytes"},{"components":[{"internalType":"uint256","name":"constructorAmount","type":"uint256"},{"internalType":"uint256","name":"initCallAmount","type":"uint256"}],"internalType":"struct CreateX.Values","name":"values","type":"tuple"},{"internalType":"address","name":"refundAddress","type":"address"}],"name":"deployCreate3AndInit","outputs":[{"internalType":"address","name":"newContract","type":"address"}],"stateMutability":"payable","type":"function"},{"inputs":[{"internalType":"bytes","name":"initCode","type":"bytes"},{"internalType":"bytes","name":"data","type":"bytes"},{"components":[{"internalType":"uint256","name":"constructorAmount","type":"uint256"},{"internalType":"uint256","name":"initCallAmount","type":"uint256"}],"internalType":"struct CreateX.Values","name":"values","type":"tuple"},{"internalType":"address","name":"refundAddress","type":"address"}],"name":"deployCreate3AndInit","outputs":[{"internalType":"address","name":"newContract","type":"address"}],"stateMutability":"payable","type":"function"},{"inputs":[{"internalType":"bytes","name":"initCode","type":"bytes"},{"internalType":"bytes","name":"data","type":"bytes"},{"components":[{"internalType":"uint256","name":"constructorAmount","type":"uint256"},{"internalType":"uint256","name":"initCallAmount","type":"uint256"}],"internalType":"struct CreateX.Values","name":"values","type":"tuple"}],"name":"deployCreateAndInit","outputs":[{"internalType":"address","name":"newContract","type":"address"}],"stateMutability":"payable","type":"function"},{"inputs":[{"internalType":"bytes","name":"initCode","type":"bytes"},{"internalType":"bytes","name":"data","type":"bytes"},{"components":[{"internalType":"uint256","name":"constructorAmount","type":"uint256"},{"internalType":"uint256","name":"initCallAmount","type":"uint256"}],"internalType":"struct CreateX.Values","name":"values","type":"tuple"},{"internalType":"address","name":"refundAddress","type":"address"}],"name":"deployCreateAndInit","outputs":[{"internalType":"address","name":"newContract","type":"address"}],"stateMutability":"payable","type":"function"},{"inputs":[{"internalType":"address","name":"implementation","type":"address"},{"internalType":"bytes","name":"data","type":"bytes"}],"name":"deployCreateClone","outputs":[{"internalType":"address","name":"proxy","type":"address"}],"stateMutability":"payable","type":"function"}],"evm":{"bytecode":{"linkReferences":{},"object":"60a06040523060805234801561001457600080fd5b50608051612e3e6100d860003960008181610603015281816107050152818161082b015281816108d50152818161127f01528181611375015281816113e00152818161141f015281816114a7015281816115b3015281816117d20152818161183d0152818161187c0152818161190401528181611ac501528181611c7801528181611ce301528181611d2201528181611daa01528181611fe901528181612206015281816122f20152818161244d015281816124a601526125820152612e3e6000f3fe60806040526004361061018a5760003560e01c806381503da1116100d6578063d323826a1161007f578063e96deee411610059578063e96deee414610395578063f5745aba146103a8578063f9664498146103bb57600080fd5b8063d323826a1461034f578063ddda0acb1461036f578063e437252a1461038257600080fd5b80639c36a286116100b05780639c36a28614610316578063a7db93f214610329578063c3fe107b1461033c57600080fd5b806381503da1146102d0578063890c283b146102e357806398e810771461030357600080fd5b80632f990e3f116101385780636cec2536116101125780636cec25361461027d57806374637a7a1461029d5780637f565360146102bd57600080fd5b80632f990e3f1461023757806331a7c8c81461024a57806342d654fc1461025d57600080fd5b806327fe18221161016957806327fe1822146101f15780632852527a1461020457806328ddd0461461021757600080fd5b8062d84acb1461018f57806326307668146101cb57806326a32fc7146101de575b600080fd5b6101a261019d366004612915565b6103ce565b60405173ffffffffffffffffffffffffffffffffffffffff909116815260200160405180910390f35b6101a26101d9366004612994565b6103e6565b6101a26101ec3660046129db565b610452565b6101a26101ff3660046129db565b6104de565b6101a2610212366004612a39565b610539565b34801561022357600080fd5b506101a2610232366004612a90565b6106fe565b6101a2610245366004612aa9565b61072a565b6101a2610258366004612aa9565b6107bb565b34801561026957600080fd5b506101a2610278366004612b1e565b6107c9565b34801561028957600080fd5b506101a2610298366004612a90565b610823565b3480156102a957600080fd5b506101a26102b8366004612b4a565b61084f565b6101a26102cb3660046129db565b611162565b6101a26102de366004612b74565b6111e8565b3480156102ef57600080fd5b506101a26102fe366004612bac565b611276565b6101a2610311366004612bce565b6112a3565b6101a2610324366004612994565b611505565b6101a2610337366004612c49565b6116f1565b6101a261034a366004612aa9565b611964565b34801561035b57600080fd5b506101a261036a366004612cd9565b6119ed565b6101a261037d366004612c49565b611a17565b6101a2610390366004612bce565b611e0c565b6101a26103a3366004612915565b611e95565b6101a26103b6366004612bce565b611ea4565b6101a26103c9366004612b74565b611f2d565b60006103dd8585858533611a17565b95945050505050565b6000806103f2846120db565b90508083516020850134f59150610408826123d3565b604051819073ffffffffffffffffffffffffffffffffffffffff8416907fb8fda7e00c6b06a2b54e58521bc5894fee35f1090e5a3bb6390bfe2b98b497f790600090a35092915050565b60006104d86104d260408051437fffffffffffffffffffffffffffffffffffffffffffffffffffffffffffffffe08101406020830152419282019290925260608101919091524260808201524460a08201524660c08201523360e08201526000906101000160405160208183030381529060405280519060200120905090565b836103e6565b92915050565b600081516020830134f090506104f3816123d3565b60405173ffffffffffffffffffffffffffffffffffffffff8216907f4db17dd5e4732fb6da34a148104a592783ca119a1e7bb8829eba6cbadef0b51190600090a2919050565b600080610545856120db565b905060008460601b90506040517f3d602d80600a3d3981f3363d3d373d3d3d363d7300000000000000000000000081528160148201527f5af43d82803e903d91602b57fd5bf300000000000000000000000000000000006028820152826037826000f593505073ffffffffffffffffffffffffffffffffffffffff8316610635576040517fc05cee7a00000000000000000000000000000000000000000000000000000000815273ffffffffffffffffffffffffffffffffffffffff7f00000000000000000000000000000000000000000000000000000000000000001660048201526024015b60405180910390fd5b604051829073ffffffffffffffffffffffffffffffffffffffff8516907fb8fda7e00c6b06a2b54e58521bc5894fee35f1090e5a3bb6390bfe2b98b497f790600090a36000808473ffffffffffffffffffffffffffffffffffffffff1634876040516106a19190612d29565b60006040518083038185875af1925050503d80600081146106de576040519150601f19603f3d011682016040523d82523d6000602084013e6106e3565b606091505b50915091506106f382828961247d565b505050509392505050565b60006104d87f00000000000000000000000000000000000000000000000000000000000000008361084f565b60006107b36107aa60408051437fffffffffffffffffffffffffffffffffffffffffffffffffffffffffffffffe08101406020830152419282019290925260608101919091524260808201524460a08201524660c08201523360e08201526000906101000160405160208183030381529060405280519060200120905090565b85858533611a17565b949350505050565b60006107b3848484336112a3565b60006040518260005260ff600b53836020527f21c35dbe1b344a2488cf3321d6ce542f8e9f305544ff09e4993a62319a497c1f6040526055600b20601452806040525061d694600052600160345350506017601e20919050565b60006104d8827f00000000000000000000000000000000000000000000000000000000000000006107c9565b600060607f9400000000000000000000000000000000000000000000000000000000000000610887600167ffffffffffffffff612d45565b67ffffffffffffffff16841115610902576040517f3c55ab3b00000000000000000000000000000000000000000000000000000000815273ffffffffffffffffffffffffffffffffffffffff7f000000000000000000000000000000000000000000000000000000000000000016600482015260240161062c565b836000036109c7576040517fd60000000000000000000000000000000000000000000000000000000000000060208201527fff00000000000000000000000000000000000000000000000000000000000000821660218201527fffffffffffffffffffffffffffffffffffffffff000000000000000000000000606087901b1660228201527f800000000000000000000000000000000000000000000000000000000000000060368201526037015b6040516020818303038152906040529150611152565b607f8411610a60576040517fd60000000000000000000000000000000000000000000000000000000000000060208201527fff0000000000000000000000000000000000000000000000000000000000000080831660218301527fffffffffffffffffffffffffffffffffffffffff000000000000000000000000606088901b16602283015260f886901b1660368201526037016109b1565b60ff8411610b1f576040517fd70000000000000000000000000000000000000000000000000000000000000060208201527fff0000000000000000000000000000000000000000000000000000000000000080831660218301527fffffffffffffffffffffffffffffffffffffffff000000000000000000000000606088901b1660228301527f8100000000000000000000000000000000000000000000000000000000000000603683015260f886901b1660378201526038016109b1565b61ffff8411610bff576040517fd80000000000000000000000000000000000000000000000000000000000000060208201527fff00000000000000000000000000000000000000000000000000000000000000821660218201527fffffffffffffffffffffffffffffffffffffffff000000000000000000000000606087901b1660228201527f820000000000000000000000000000000000000000000000000000000000000060368201527fffff00000000000000000000000000000000000000000000000000000000000060f086901b1660378201526039016109b1565b62ffffff8411610ce0576040517fd90000000000000000000000000000000000000000000000000000000000000060208201527fff00000000000000000000000000000000000000000000000000000000000000821660218201527fffffffffffffffffffffffffffffffffffffffff000000000000000000000000606087901b1660228201527f830000000000000000000000000000000000000000000000000000000000000060368201527fffffff000000000000000000000000000000000000000000000000000000000060e886901b166037820152603a016109b1565b63ffffffff8411610dc2576040517fda0000000000000000000000000000000000000000000000000000000000000060208201527fff00000000000000000000000000000000000000000000000000000000000000821660218201527fffffffffffffffffffffffffffffffffffffffff000000000000000000000000606087901b1660228201527f840000000000000000000000000000000000000000000000000000000000000060368201527fffffffff0000000000000000000000000000000000000000000000000000000060e086901b166037820152603b016109b1565b64ffffffffff8411610ea5576040517fdb0000000000000000000000000000000000000000000000000000000000000060208201527fff00000000000000000000000000000000000000000000000000000000000000821660218201527fffffffffffffffffffffffffffffffffffffffff000000000000000000000000606087901b1660228201527f850000000000000000000000000000000000000000000000000000000000000060368201527fffffffffff00000000000000000000000000000000000000000000000000000060d886901b166037820152603c016109b1565b65ffffffffffff8411610f89576040517fdc0000000000000000000000000000000000000000000000000000000000000060208201527fff00000000000000000000000000000000000000000000000000000000000000821660218201527fffffffffffffffffffffffffffffffffffffffff000000000000000000000000606087901b1660228201527f860000000000000000000000000000000000000000000000000000000000000060368201527fffffffffffff000000000000000000000000000000000000000000000000000060d086901b166037820152603d016109b1565b66ffffffffffffff841161106e576040517fdd0000000000000000000000000000000000000000000000000000000000000060208201527fff00000000000000000000000000000000000000000000000000000000000000821660218201527fffffffffffffffffffffffffffffffffffffffff000000000000000000000000606087901b1660228201527f870000000000000000000000000000000000000000000000000000000000000060368201527fffffffffffffff0000000000000000000000000000000000000000000000000060c886901b166037820152603e016109b1565b6040517fde0000000000000000000000000000000000000000000000000000000000000060208201527fff00000000000000000000000000000000000000000000000000000000000000821660218201527fffffffffffffffffffffffffffffffffffffffff000000000000000000000000606087901b1660228201527f880000000000000000000000000000000000000000000000000000000000000060368201527fffffffffffffffff00000000000000000000000000000000000000000000000060c086901b166037820152603f0160405160208183030381529060405291505b5080516020909101209392505050565b60006104d86111e260408051437fffffffffffffffffffffffffffffffffffffffffffffffffffffffffffffffe08101406020830152419282019290925260608101919091524260808201524460a08201524660c08201523360e08201526000906101000160405160208183030381529060405280519060200120905090565b83611505565b600061126f61126860408051437fffffffffffffffffffffffffffffffffffffffffffffffffffffffffffffffe08101406020830152419282019290925260608101919091524260808201524460a08201524660c08201523360e08201526000906101000160405160208183030381529060405280519060200120905090565b8484610539565b9392505050565b600061126f83837f00000000000000000000000000000000000000000000000000000000000000006119ed565b60008451602086018451f090506112b9816123d3565b60405173ffffffffffffffffffffffffffffffffffffffff8216907f4db17dd5e4732fb6da34a148104a592783ca119a1e7bb8829eba6cbadef0b51190600090a26000808273ffffffffffffffffffffffffffffffffffffffff168560200151876040516113279190612d29565b60006040518083038185875af1925050503d8060008114611364576040519150601f19603f3d011682016040523d82523d6000602084013e611369565b606091505b5091509150816113c9577f0000000000000000000000000000000000000000000000000000000000000000816040517fa57ca23900000000000000000000000000000000000000000000000000000000815260040161062c929190612d94565b73ffffffffffffffffffffffffffffffffffffffff7f00000000000000000000000000000000000000000000000000000000000000001631156114fb578373ffffffffffffffffffffffffffffffffffffffff167f000000000000000000000000000000000000000000000000000000000000000073ffffffffffffffffffffffffffffffffffffffff163160405160006040518083038185875af1925050503d8060008114611495576040519150601f19603f3d011682016040523d82523d6000602084013e61149a565b606091505b509092509050816114fb577f0000000000000000000000000000000000000000000000000000000000000000816040517fc2b3f44500000000000000000000000000000000000000000000000000000000815260040161062c929190612d94565b5050949350505050565b600080611511846120db565b905060006040518060400160405280601081526020017f67363d3d37363d34f03d5260086018f30000000000000000000000000000000081525090506000828251602084016000f5905073ffffffffffffffffffffffffffffffffffffffff81166115e0576040517fc05cee7a00000000000000000000000000000000000000000000000000000000815273ffffffffffffffffffffffffffffffffffffffff7f000000000000000000000000000000000000000000000000000000000000000016600482015260240161062c565b604051839073ffffffffffffffffffffffffffffffffffffffff8316907f2feea65dd4e9f9cbd86b74b7734210c59a1b2981b5b137bd0ee3e208200c906790600090a361162c83610823565b935060008173ffffffffffffffffffffffffffffffffffffffff1634876040516116569190612d29565b60006040518083038185875af1925050503d8060008114611693576040519150601f19603f3d011682016040523d82523d6000602084013e611698565b606091505b505090506116a681866124ff565b60405173ffffffffffffffffffffffffffffffffffffffff8616907f4db17dd5e4732fb6da34a148104a592783ca119a1e7bb8829eba6cbadef0b51190600090a25050505092915050565b6000806116fd876120db565b9050808651602088018651f59150611714826123d3565b604051819073ffffffffffffffffffffffffffffffffffffffff8416907fb8fda7e00c6b06a2b54e58521bc5894fee35f1090e5a3bb6390bfe2b98b497f790600090a36000808373ffffffffffffffffffffffffffffffffffffffff168660200151886040516117849190612d29565b60006040518083038185875af1925050503d80600081146117c1576040519150601f19603f3d011682016040523d82523d6000602084013e6117c6565b606091505b509150915081611826577f0000000000000000000000000000000000000000000000000000000000000000816040517fa57ca23900000000000000000000000000000000000000000000000000000000815260040161062c929190612d94565b73ffffffffffffffffffffffffffffffffffffffff7f0000000000000000000000000000000000000000000000000000000000000000163115611958578473ffffffffffffffffffffffffffffffffffffffff167f000000000000000000000000000000000000000000000000000000000000000073ffffffffffffffffffffffffffffffffffffffff163160405160006040518083038185875af1925050503d80600081146118f2576040519150601f19603f3d011682016040523d82523d6000602084013e6118f7565b606091505b50909250905081611958577f0000000000000000000000000000000000000000000000000000000000000000816040517fc2b3f44500000000000000000000000000000000000000000000000000000000815260040161062c929190612d94565b50505095945050505050565b60006107b36119e460408051437fffffffffffffffffffffffffffffffffffffffffffffffffffffffffffffffe08101406020830152419282019290925260608101919091524260808201524460a08201524660c08201523360e08201526000906101000160405160208183030381529060405280519060200120905090565b858585336116f1565b6000604051836040820152846020820152828152600b8101905060ff815360559020949350505050565b600080611a23876120db565b905060006040518060400160405280601081526020017f67363d3d37363d34f03d5260086018f30000000000000000000000000000000081525090506000828251602084016000f5905073ffffffffffffffffffffffffffffffffffffffff8116611af2576040517fc05cee7a00000000000000000000000000000000000000000000000000000000815273ffffffffffffffffffffffffffffffffffffffff7f000000000000000000000000000000000000000000000000000000000000000016600482015260240161062c565b604051839073ffffffffffffffffffffffffffffffffffffffff8316907f2feea65dd4e9f9cbd86b74b7734210c59a1b2981b5b137bd0ee3e208200c906790600090a3611b3e83610823565b935060008173ffffffffffffffffffffffffffffffffffffffff1687600001518a604051611b6c9190612d29565b60006040518083038185875af1925050503d8060008114611ba9576040519150601f19603f3d011682016040523d82523d6000602084013e611bae565b606091505b50509050611bbc81866124ff565b60405173ffffffffffffffffffffffffffffffffffffffff8616907f4db17dd5e4732fb6da34a148104a592783ca119a1e7bb8829eba6cbadef0b51190600090a260608573ffffffffffffffffffffffffffffffffffffffff1688602001518a604051611c299190612d29565b60006040518083038185875af1925050503d8060008114611c66576040519150601f19603f3d011682016040523d82523d6000602084013e611c6b565b606091505b50909250905081611ccc577f0000000000000000000000000000000000000000000000000000000000000000816040517fa57ca23900000000000000000000000000000000000000000000000000000000815260040161062c929190612d94565b73ffffffffffffffffffffffffffffffffffffffff7f0000000000000000000000000000000000000000000000000000000000000000163115611dfe578673ffffffffffffffffffffffffffffffffffffffff167f000000000000000000000000000000000000000000000000000000000000000073ffffffffffffffffffffffffffffffffffffffff163160405160006040518083038185875af1925050503d8060008114611d98576040519150601f19603f3d011682016040523d82523d6000602084013e611d9d565b606091505b50909250905081611dfe577f0000000000000000000000000000000000000000000000000000000000000000816040517fc2b3f44500000000000000000000000000000000000000000000000000000000815260040161062c929190612d94565b505050505095945050505050565b60006103dd611e8c60408051437fffffffffffffffffffffffffffffffffffffffffffffffffffffffffffffffe08101406020830152419282019290925260608101919091524260808201524460a08201524660c08201523360e08201526000906101000160405160208183030381529060405280519060200120905090565b868686866116f1565b60006103dd85858585336116f1565b60006103dd611f2460408051437fffffffffffffffffffffffffffffffffffffffffffffffffffffffffffffffe08101406020830152419282019290925260608101919091524260808201524460a08201524660c08201523360e08201526000906101000160405160208183030381529060405280519060200120905090565b86868686611a17565b6000808360601b90506040517f3d602d80600a3d3981f3363d3d373d3d3d363d7300000000000000000000000081528160148201527f5af43d82803e903d91602b57fd5bf3000000000000000000000000000000000060288201526037816000f092505073ffffffffffffffffffffffffffffffffffffffff8216612016576040517fc05cee7a00000000000000000000000000000000000000000000000000000000815273ffffffffffffffffffffffffffffffffffffffff7f000000000000000000000000000000000000000000000000000000000000000016600482015260240161062c565b60405173ffffffffffffffffffffffffffffffffffffffff8316907f4db17dd5e4732fb6da34a148104a592783ca119a1e7bb8829eba6cbadef0b51190600090a26000808373ffffffffffffffffffffffffffffffffffffffff1634866040516120809190612d29565b60006040518083038185875af1925050503d80600081146120bd576040519150601f19603f3d011682016040523d82523d6000602084013e6120c2565b606091505b50915091506120d282828861247d565b50505092915050565b60008060006120e9846125b3565b9092509050600082600281111561210257612102612e02565b1480156121205750600081600281111561211e5761211e612e02565b145b1561215e57604080513360208201524691810191909152606081018590526080016040516020818303038152906040528051906020012092506123cc565b600082600281111561217257612172612e02565b1480156121905750600181600281111561218e5761218e612e02565b145b156121b0576121a9338560009182526020526040902090565b92506123cc565b60008260028111156121c4576121c4612e02565b03612233576040517f13b3a2a100000000000000000000000000000000000000000000000000000000815273ffffffffffffffffffffffffffffffffffffffff7f000000000000000000000000000000000000000000000000000000000000000016600482015260240161062c565b600182600281111561224757612247612e02565b1480156122655750600081600281111561226357612263612e02565b145b1561227e576121a9468560009182526020526040902090565b600182600281111561229257612292612e02565b1480156122b0575060028160028111156122ae576122ae612e02565b145b1561231f576040517f13b3a2a100000000000000000000000000000000000000000000000000000000815273ffffffffffffffffffffffffffffffffffffffff7f000000000000000000000000000000000000000000000000000000000000000016600482015260240161062c565b61239a60408051437fffffffffffffffffffffffffffffffffffffffffffffffffffffffffffffffe08101406020830152419282019290925260608101919091524260808201524460a08201524660c08201523360e08201526000906101000160405160208183030381529060405280519060200120905090565b84036123a657836123c9565b604080516020810186905201604051602081830303815290604052805190602001205b92505b5050919050565b73ffffffffffffffffffffffffffffffffffffffff8116158061240b575073ffffffffffffffffffffffffffffffffffffffff81163b155b1561247a576040517fc05cee7a00000000000000000000000000000000000000000000000000000000815273ffffffffffffffffffffffffffffffffffffffff7f000000000000000000000000000000000000000000000000000000000000000016600482015260240161062c565b50565b82158061249f575073ffffffffffffffffffffffffffffffffffffffff81163b155b156124fa577f0000000000000000000000000000000000000000000000000000000000000000826040517fa57ca23900000000000000000000000000000000000000000000000000000000815260040161062c929190612d94565b505050565b811580612520575073ffffffffffffffffffffffffffffffffffffffff8116155b80612540575073ffffffffffffffffffffffffffffffffffffffff81163b155b156125af576040517fc05cee7a00000000000000000000000000000000000000000000000000000000815273ffffffffffffffffffffffffffffffffffffffff7f000000000000000000000000000000000000000000000000000000000000000016600482015260240161062c565b5050565b600080606083901c3314801561261057508260141a60f81b7effffffffffffffffffffffffffffffffffffffffffffffffffffffffffffff19167f0100000000000000000000000000000000000000000000000000000000000000145b1561262057506000905080915091565b606083901c3314801561265a57507fff00000000000000000000000000000000000000000000000000000000000000601484901a60f81b16155b1561266b5750600090506001915091565b33606084901c036126825750600090506002915091565b606083901c1580156126db57508260141a60f81b7effffffffffffffffffffffffffffffffffffffffffffffffffffffffffffff19167f0100000000000000000000000000000000000000000000000000000000000000145b156126ec5750600190506000915091565b606083901c15801561272557507fff00000000000000000000000000000000000000000000000000000000000000601484901a60f81b16155b1561273557506001905080915091565b606083901c61274a5750600190506002915091565b8260141a60f81b7effffffffffffffffffffffffffffffffffffffffffffffffffffffffffffff19167f0100000000000000000000000000000000000000000000000000000000000000036127a55750600290506000915091565b8260141a60f81b7effffffffffffffffffffffffffffffffffffffffffffffffffffffffffffff19166000036127e15750600290506001915091565b506002905080915091565b7f4e487b7100000000000000000000000000000000000000000000000000000000600052604160045260246000fd5b600082601f83011261282c57600080fd5b813567ffffffffffffffff80821115612847576128476127ec565b604051601f83017fffffffffffffffffffffffffffffffffffffffffffffffffffffffffffffffe0908116603f0116810190828211818310171561288d5761288d6127ec565b816040528381528660208588010111156128a657600080fd5b836020870160208301376000602085830101528094505050505092915050565b6000604082840312156128d857600080fd5b6040516040810181811067ffffffffffffffff821117156128fb576128fb6127ec565b604052823581526020928301359281019290925250919050565b60008060008060a0858703121561292b57600080fd5b84359350602085013567ffffffffffffffff8082111561294a57600080fd5b6129568883890161281b565b9450604087013591508082111561296c57600080fd5b506129798782880161281b565b92505061298986606087016128c6565b905092959194509250565b600080604083850312156129a757600080fd5b82359150602083013567ffffffffffffffff8111156129c557600080fd5b6129d18582860161281b565b9150509250929050565b6000602082840312156129ed57600080fd5b813567ffffffffffffffff811115612a0457600080fd5b6107b38482850161281b565b803573ffffffffffffffffffffffffffffffffffffffff81168114612a3457600080fd5b919050565b600080600060608486031215612a4e57600080fd5b83359250612a5e60208501612a10565b9150604084013567ffffffffffffffff811115612a7a57600080fd5b612a868682870161281b565b9150509250925092565b600060208284031215612aa257600080fd5b5035919050565b600080600060808486031215612abe57600080fd5b833567ffffffffffffffff80821115612ad657600080fd5b612ae28783880161281b565b94506020860135915080821115612af857600080fd5b50612b058682870161281b565b925050612b1585604086016128c6565b90509250925092565b60008060408385031215612b3157600080fd5b82359150612b4160208401612a10565b90509250929050565b60008060408385031215612b5d57600080fd5b612b6683612a10565b946020939093013593505050565b60008060408385031215612b8757600080fd5b612b9083612a10565b9150602083013567ffffffffffffffff8111156129c557600080fd5b60008060408385031215612bbf57600080fd5b50508035926020909101359150565b60008060008060a08587031215612be457600080fd5b843567ffffffffffffffff80821115612bfc57600080fd5b612c088883890161281b565b95506020870135915080821115612c1e57600080fd5b50612c2b8782880161281b565b935050612c3b86604087016128c6565b915061298960808601612a10565b600080600080600060c08688031215612c6157600080fd5b85359450602086013567ffffffffffffffff80821115612c8057600080fd5b612c8c89838a0161281b565b95506040880135915080821115612ca257600080fd5b50612caf8882890161281b565b935050612cbf87606088016128c6565b9150612ccd60a08701612a10565b90509295509295909350565b600080600060608486031215612cee57600080fd5b8335925060208401359150612b1560408501612a10565b60005b83811015612d20578181015183820152602001612d08565b50506000910152565b60008251612d3b818460208701612d05565b9190910192915050565b67ffffffffffffffff828116828216039080821115612d8d577f4e487b7100000000000000000000000000000000000000000000000000000000600052601160045260246000fd5b5092915050565b73ffffffffffffffffffffffffffffffffffffffff831681526040602082015260008251806040840152612dcf816060850160208701612d05565b601f017fffffffffffffffffffffffffffffffffffffffffffffffffffffffffffffffe016919091016060019392505050565b7f4e487b7100000000000000000000000000000000000000000000000000000000600052602160045260246000fdfea164736f6c6343000817000a","opcodes":"PUSH1 0xA0 PUSH1 0x40 MSTORE ADDRESS PUSH1 0x80 MSTORE CALLVALUE DUP1 ISZERO PUSH2 0x14 JUMPI PUSH1 0x0 DUP1 REVERT JUMPDEST POP PUSH1 0x80 MLOAD PUSH2 0x2E3E PUSH2 0xD8 PUSH1 0x0 CODECOPY PUSH1 0x0 DUP2 DUP2 PUSH2 0x603 ADD MSTORE DUP2 DUP2 PUSH2 0x705 ADD MSTORE DUP2 DUP2 PUSH2 0x82B ADD MSTORE DUP2 DUP2 PUSH2 0x8D5 ADD MSTORE DUP2 DUP2 PUSH2 0x127F ADD MSTORE DUP2 DUP2 PUSH2 0x1375 ADD MSTORE DUP2 DUP2 PUSH2 0x13E0 ADD MSTORE DUP2 DUP2 PUSH2 0x141F ADD MSTORE DUP2 DUP2 PUSH2 0x14A7 ADD MSTORE DUP2 DUP2 PUSH2 0x15B3 ADD MSTORE DUP2 DUP2 PUSH2 0x17D2 ADD MSTORE DUP2 DUP2 PUSH2 0x183D ADD MSTORE DUP2 DUP2 PUSH2 0x187C ADD MSTORE DUP2 DUP2 PUSH2 0x1904 ADD MSTORE DUP2 DUP2 PUSH2 0x1AC5 ADD MSTORE DUP2 DUP2 PUSH2 0x1C78 ADD MSTORE DUP2 DUP2 PUSH2 0x1CE3 ADD MSTORE DUP2 DUP2 PUSH2 0x1D22 ADD MSTORE DUP2 DUP2 PUSH2 0x1DAA ADD MSTORE DUP2 DUP2 PUSH2 0x1FE9 ADD MSTORE DUP2 DUP2 PUSH2 0x2206 ADD MSTORE DUP2 DUP2 PUSH2 0x22F2 ADD MSTORE DUP2 DUP2 PUSH2 0x244D ADD MSTORE DUP2 DUP2 PUSH2 0x24A6 ADD MSTORE PUSH2 0x2582 ADD MSTORE PUSH2 0x2E3E PUSH1 0x0 RETURN INVALID PUSH1 0x80 PUSH1 0x40 MSTORE PUSH1 0x4 CALLDATASIZE LT PUSH2 0x18A JUMPI PUSH1 0x0 CALLDATALOAD PUSH1 0xE0 SHR DUP1 PUSH4 0x81503DA1 GT PUSH2 0xD6 JUMPI DUP1 PUSH4 0xD323826A GT PUSH2 0x7F JUMPI DUP1 PUSH4 0xE96DEEE4 GT PUSH2 0x59 JUMPI DUP1 PUSH4 0xE96DEEE4 EQ PUSH2 0x395 JUMPI DUP1 PUSH4 0xF5745ABA EQ PUSH2 0x3A8 JUMPI DUP1 PUSH4 0xF9664498 EQ PUSH2 0x3BB JUMPI PUSH1 0x0 DUP1 REVERT JUMPDEST DUP1 PUSH4 0xD323826A EQ PUSH2 0x34F JUMPI DUP1 PUSH4 0xDDDA0ACB EQ PUSH2 0x36F JUMPI DUP1 PUSH4 0xE437252A EQ PUSH2 0x382 JUMPI PUSH1 0x0 DUP1 REVERT JUMPDEST DUP1 PUSH4 0x9C36A286 GT PUSH2 0xB0 JUMPI DUP1 PUSH4 0x9C36A286 EQ PUSH2 0x316 JUMPI DUP1 PUSH4 0xA7DB93F2 EQ PUSH2 0x329 JUMPI DUP1 PUSH4 0xC3FE107B EQ PUSH2 0x33C JUMPI PUSH1 0x0 DUP1 REVERT JUMPDEST DUP1 PUSH4 0x81503DA1 EQ PUSH2 0x2D0 JUMPI DUP1 PUSH4 0x890C283B EQ PUSH2 0x2E3 JUMPI DUP1 PUSH4 0x98E81077 EQ PUSH2 0x303 JUMPI PUSH1 0x0 DUP1 REVERT JUMPDEST DUP1 PUSH4 0x2F990E3F GT PUSH2 0x138 JUMPI DUP1 PUSH4 0x6CEC2536 GT PUSH2 0x112 JUMPI DUP1 PUSH4 0x6CEC2536 EQ PUSH2 0x27D JUMPI DUP1 PUSH4 0x74637A7A EQ PUSH2 0x29D JUMPI DUP1 PUSH4 0x7F565360 EQ PUSH2 0x2BD JUMPI PUSH1 0x0 DUP1 REVERT JUMPDEST DUP1 PUSH4 0x2F990E3F EQ PUSH2 0x237 JUMPI DUP1 PUSH4 0x31A7C8C8 EQ PUSH2 0x24A JUMPI DUP1 PUSH4 0x42D654FC EQ PUSH2 0x25D JUMPI PUSH1 0x0 DUP1 REVERT JUMPDEST DUP1 PUSH4 0x27FE1822 GT PUSH2 0x169 JUMPI DUP1 PUSH4 0x27FE1822 EQ PUSH2 0x1F1 JUMPI DUP1 PUSH4 0x2852527A EQ PUSH2 0x204 JUMPI DUP1 PUSH4 0x28DDD046 EQ PUSH2 0x217 JUMPI PUSH1 0x0 DUP1 REVERT JUMPDEST DUP1 PUSH3 0xD84ACB EQ PUSH2 0x18F JUMPI DUP1 PUSH4 0x26307668 EQ PUSH2 0x1CB JUMPI DUP1 PUSH4 0x26A32FC7 EQ PUSH2 0x1DE JUMPI JUMPDEST PUSH1 0x0 DUP1 REVERT JUMPDEST PUSH2 0x1A2 PUSH2 0x19D CALLDATASIZE PUSH1 0x4 PUSH2 0x2915 JUMP JUMPDEST PUSH2 0x3CE JUMP JUMPDEST PUSH1 0x40 MLOAD PUSH20 0xFFFFFFFFFFFFFFFFFFFFFFFFFFFFFFFFFFFFFFFF SWAP1 SWAP2 AND DUP2 MSTORE PUSH1 0x20 ADD PUSH1 0x40 MLOAD DUP1 SWAP2 SUB SWAP1 RETURN JUMPDEST PUSH2 0x1A2 PUSH2 0x1D9 CALLDATASIZE PUSH1 0x4 PUSH2 0x2994 JUMP JUMPDEST PUSH2 0x3E6 JUMP JUMPDEST PUSH2 0x1A2 PUSH2 0x1EC CALLDATASIZE PUSH1 0x4 PUSH2 0x29DB JUMP JUMPDEST PUSH2 0x452 JUMP JUMPDEST PUSH2 0x1A2 PUSH2 0x1FF CALLDATASIZE PUSH1 0x4 PUSH2 0x29DB JUMP JUMPDEST PUSH2 0x4DE JUMP JUMPDEST PUSH2 0x1A2 PUSH2 0x212 CALLDATASIZE PUSH1 0x4 PUSH2 0x2A39 JUMP JUMPDEST PUSH2 0x539 JUMP JUMPDEST CALLVALUE DUP1 ISZERO PUSH2 0x223 JUMPI PUSH1 0x0 DUP1 REVERT JUMPDEST POP PUSH2 0x1A2 PUSH2 0x232 CALLDATASIZE PUSH1 0x4 PUSH2 0x2A90 JUMP JUMPDEST PUSH2 0x6FE JUMP JUMPDEST PUSH2 0x1A2 PUSH2 0x245 CALLDATASIZE PUSH1 0x4 PUSH2 0x2AA9 JUMP JUMPDEST PUSH2 0x72A JUMP JUMPDEST PUSH2 0x1A2 PUSH2 0x258 CALLDATASIZE PUSH1 0x4 PUSH2 0x2AA9 JUMP JUMPDEST PUSH2 0x7BB JUMP JUMPDEST CALLVALUE DUP1 ISZERO PUSH2 0x269 JUMPI PUSH1 0x0 DUP1 REVERT JUMPDEST POP PUSH2 0x1A2 PUSH2 0x278 CALLDATASIZE PUSH1 0x4 PUSH2 0x2B1E JUMP JUMPDEST PUSH2 0x7C9 JUMP JUMPDEST CALLVALUE DUP1 ISZERO PUSH2 0x289 JUMPI PUSH1 0x0 DUP1 REVERT JUMPDEST POP PUSH2 0x1A2 PUSH2 0x298 CALLDATASIZE PUSH1 0x4 PUSH2 0x2A90 JUMP JUMPDEST PUSH2 0x823 JUMP JUMPDEST CALLVALUE DUP1 ISZERO PUSH2 0x2A9 JUMPI PUSH1 0x0 DUP1 REVERT JUMPDEST POP PUSH2 0x1A2 PUSH2 0x2B8 CALLDATASIZE PUSH1 0x4 PUSH2 0x2B4A JUMP JUMPDEST PUSH2 0x84F JUMP JUMPDEST PUSH2 0x1A2 PUSH2 0x2CB CALLDATASIZE PUSH1 0x4 PUSH2 0x29DB JUMP JUMPDEST PUSH2 0x1162 JUMP JUMPDEST PUSH2 0x1A2 PUSH2 0x2DE CALLDATASIZE PUSH1 0x4 PUSH2 0x2B74 JUMP JUMPDEST PUSH2 0x11E8 JUMP JUMPDEST CALLVALUE DUP1 ISZERO PUSH2 0x2EF JUMPI PUSH1 0x0 DUP1 REVERT JUMPDEST POP PUSH2 0x1A2 PUSH2 0x2FE CALLDATASIZE PUSH1 0x4 PUSH2 0x2BAC JUMP JUMPDEST PUSH2 0x1276 JUMP JUMPDEST PUSH2 0x1A2 PUSH2 0x311 CALLDATASIZE PUSH1 0x4 PUSH2 0x2BCE JUMP JUMPDEST PUSH2 0x12A3 JUMP JUMPDEST PUSH2 0x1A2 PUSH2 0x324 CALLDATASIZE PUSH1 0x4 PUSH2 0x2994 JUMP JUMPDEST PUSH2 0x1505 JUMP JUMPDEST PUSH2 0x1A2 PUSH2 0x337 CALLDATASIZE PUSH1 0x4 PUSH2 0x2C49 JUMP JUMPDEST PUSH2 0x16F1 JUMP JUMPDEST PUSH2 0x1A2 PUSH2 0x34A CALLDATASIZE PUSH1 0x4 PUSH2 0x2AA9 JUMP JUMPDEST PUSH2 0x1964 JUMP JUMPDEST CALLVALUE DUP1 ISZERO PUSH2 0x35B JUMPI PUSH1 0x0 DUP1 REVERT JUMPDEST POP PUSH2 0x1A2 PUSH2 0x36A CALLDATASIZE PUSH1 0x4 PUSH2 0x2CD9 JUMP JUMPDEST PUSH2 0x19ED JUMP JUMPDEST PUSH2 0x1A2 PUSH2 0x37D CALLDATASIZE PUSH1 0x4 PUSH2 0x2C49 JUMP JUMPDEST PUSH2 0x1A17 JUMP JUMPDEST PUSH2 0x1A2 PUSH2 0x390 CALLDATASIZE PUSH1 0x4 PUSH2 0x2BCE JUMP JUMPDEST PUSH2 0x1E0C JUMP JUMPDEST PUSH2 0x1A2 PUSH2 0x3A3 CALLDATASIZE PUSH1 0x4 PUSH2 0x2915 JUMP JUMPDEST PUSH2 0x1E95 JUMP JUMPDEST PUSH2 0x1A2 PUSH2 0x3B6 CALLDATASIZE PUSH1 0x4 PUSH2 0x2BCE JUMP JUMPDEST PUSH2 0x1EA4 JUMP JUMPDEST PUSH2 0x1A2 PUSH2 0x3C9 CALLDATASIZE PUSH1 0x4 PUSH2 0x2B74 JUMP JUMPDEST PUSH2 0x1F2D JUMP JUMPDEST PUSH1 0x0 PUSH2 0x3DD DUP6 DUP6 DUP6 DUP6 CALLER PUSH2 0x1A17 JUMP JUMPDEST SWAP6 SWAP5 POP POP POP POP POP JUMP JUMPDEST PUSH1 0x0 DUP1 PUSH2 0x3F2 DUP5 PUSH2 0x20DB JUMP JUMPDEST SWAP1 POP DUP1 DUP4 MLOAD PUSH1 0x20 DUP6 ADD CALLVALUE CREATE2 SWAP2 POP PUSH2 0x408 DUP3 PUSH2 0x23D3 JUMP JUMPDEST PUSH1 0x40 MLOAD DUP2 SWAP1 PUSH20 0xFFFFFFFFFFFFFFFFFFFFFFFFFFFFFFFFFFFFFFFF DUP5 AND SWAP1 PUSH32 0xB8FDA7E00C6B06A2B54E58521BC5894FEE35F1090E5A3BB6390BFE2B98B497F7 SWAP1 PUSH1 0x0 SWAP1 LOG3 POP SWAP3 SWAP2 POP POP JUMP JUMPDEST PUSH1 0x0 PUSH2 0x4D8 PUSH2 0x4D2 PUSH1 0x40 DUP1 MLOAD NUMBER PUSH32 0xFFFFFFFFFFFFFFFFFFFFFFFFFFFFFFFFFFFFFFFFFFFFFFFFFFFFFFFFFFFFFFE0 DUP2 ADD BLOCKHASH PUSH1 0x20 DUP4 ADD MSTORE COINBASE SWAP3 DUP3 ADD SWAP3 SWAP1 SWAP3 MSTORE PUSH1 0x60 DUP2 ADD SWAP2 SWAP1 SWAP2 MSTORE TIMESTAMP PUSH1 0x80 DUP3 ADD MSTORE PREVRANDAO PUSH1 0xA0 DUP3 ADD MSTORE CHAINID PUSH1 0xC0 DUP3 ADD MSTORE CALLER PUSH1 0xE0 DUP3 ADD MSTORE PUSH1 0x0 SWAP1 PUSH2 0x100 ADD PUSH1 0x40 MLOAD PUSH1 0x20 DUP2 DUP4 SUB SUB DUP2 MSTORE SWAP1 PUSH1 0x40 MSTORE DUP1 MLOAD SWAP1 PUSH1 0x20 ADD KECCAK256 SWAP1 POP SWAP1 JUMP JUMPDEST DUP4 PUSH2 0x3E6 JUMP JUMPDEST SWAP3 SWAP2 POP POP JUMP JUMPDEST PUSH1 0x0 DUP2 MLOAD PUSH1 0x20 DUP4 ADD CALLVALUE CREATE SWAP1 POP PUSH2 0x4F3 DUP2 PUSH2 0x23D3 JUMP JUMPDEST PUSH1 0x40 MLOAD PUSH20 0xFFFFFFFFFFFFFFFFFFFFFFFFFFFFFFFFFFFFFFFF DUP3 AND SWAP1 PUSH32 0x4DB17DD5E4732FB6DA34A148104A592783CA119A1E7BB8829EBA6CBADEF0B511 SWAP1 PUSH1 0x0 SWAP1 LOG2 SWAP2 SWAP1 POP JUMP JUMPDEST PUSH1 0x0 DUP1 PUSH2 0x545 DUP6 PUSH2 0x20DB JUMP JUMPDEST SWAP1 POP PUSH1 0x0 DUP5 PUSH1 0x60 SHL SWAP1 POP PUSH1 0x40 MLOAD PUSH32 0x3D602D80600A3D3981F3363D3D373D3D3D363D73000000000000000000000000 DUP2 MSTORE DUP2 PUSH1 0x14 DUP3 ADD MSTORE PUSH32 0x5AF43D82803E903D91602B57FD5BF30000000000000000000000000000000000 PUSH1 0x28 DUP3 ADD MSTORE DUP3 PUSH1 0x37 DUP3 PUSH1 0x0 CREATE2 SWAP4 POP POP PUSH20 0xFFFFFFFFFFFFFFFFFFFFFFFFFFFFFFFFFFFFFFFF DUP4 AND PUSH2 0x635 JUMPI PUSH1 0x40 MLOAD PUSH32 0xC05CEE7A00000000000000000000000000000000000000000000000000000000 DUP2 MSTORE PUSH20 0xFFFFFFFFFFFFFFFFFFFFFFFFFFFFFFFFFFFFFFFF PUSH32 0x0 AND PUSH1 0x4 DUP3 ADD MSTORE PUSH1 0x24 ADD JUMPDEST PUSH1 0x40 MLOAD DUP1 SWAP2 SUB SWAP1 REVERT JUMPDEST PUSH1 0x40 MLOAD DUP3 SWAP1 PUSH20 0xFFFFFFFFFFFFFFFFFFFFFFFFFFFFFFFFFFFFFFFF DUP6 AND SWAP1 PUSH32 0xB8FDA7E00C6B06A2B54E58521BC5894FEE35F1090E5A3BB6390BFE2B98B497F7 SWAP1 PUSH1 0x0 SWAP1 LOG3 PUSH1 0x0 DUP1 DUP5 PUSH20 0xFFFFFFFFFFFFFFFFFFFFFFFFFFFFFFFFFFFFFFFF AND CALLVALUE DUP8 PUSH1 0x40 MLOAD PUSH2 0x6A1 SWAP2 SWAP1 PUSH2 0x2D29 JUMP JUMPDEST PUSH1 0x0 PUSH1 0x40 MLOAD DUP1 DUP4 SUB DUP2 DUP6 DUP8 GAS CALL SWAP3 POP POP POP RETURNDATASIZE DUP1 PUSH1 0x0 DUP2 EQ PUSH2 0x6DE JUMPI PUSH1 0x40 MLOAD SWAP2 POP PUSH1 0x1F NOT PUSH1 0x3F RETURNDATASIZE ADD AND DUP3 ADD PUSH1 0x40 MSTORE RETURNDATASIZE DUP3 MSTORE RETURNDATASIZE PUSH1 0x0 PUSH1 0x20 DUP5 ADD RETURNDATACOPY PUSH2 0x6E3 JUMP JUMPDEST PUSH1 0x60 SWAP2 POP JUMPDEST POP SWAP2 POP SWAP2 POP PUSH2 0x6F3 DUP3 DUP3 DUP10 PUSH2 0x247D JUMP JUMPDEST POP POP POP POP SWAP4 SWAP3 POP POP POP JUMP JUMPDEST PUSH1 0x0 PUSH2 0x4D8 PUSH32 0x0 DUP4 PUSH2 0x84F JUMP JUMPDEST PUSH1 0x0 PUSH2 0x7B3 PUSH2 0x7AA PUSH1 0x40 DUP1 MLOAD NUMBER PUSH32 0xFFFFFFFFFFFFFFFFFFFFFFFFFFFFFFFFFFFFFFFFFFFFFFFFFFFFFFFFFFFFFFE0 DUP2 ADD BLOCKHASH PUSH1 0x20 DUP4 ADD MSTORE COINBASE SWAP3 DUP3 ADD SWAP3 SWAP1 SWAP3 MSTORE PUSH1 0x60 DUP2 ADD SWAP2 SWAP1 SWAP2 MSTORE TIMESTAMP PUSH1 0x80 DUP3 ADD MSTORE PREVRANDAO PUSH1 0xA0 DUP3 ADD MSTORE CHAINID PUSH1 0xC0 DUP3 ADD MSTORE CALLER PUSH1 0xE0 DUP3 ADD MSTORE PUSH1 0x0 SWAP1 PUSH2 0x100 ADD PUSH1 0x40 MLOAD PUSH1 0x20 DUP2 DUP4 SUB SUB DUP2 MSTORE SWAP1 PUSH1 0x40 MSTORE DUP1 MLOAD SWAP1 PUSH1 0x20 ADD KECCAK256 SWAP1 POP SWAP1 JUMP JUMPDEST DUP6 DUP6 DUP6 CALLER PUSH2 0x1A17 JUMP JUMPDEST SWAP5 SWAP4 POP POP POP POP JUMP JUMPDEST PUSH1 0x0 PUSH2 0x7B3 DUP5 DUP5 DUP5 CALLER PUSH2 0x12A3 JUMP JUMPDEST PUSH1 0x0 PUSH1 0x40 MLOAD DUP3 PUSH1 0x0 MSTORE PUSH1 0xFF PUSH1 0xB MSTORE8 DUP4 PUSH1 0x20 MSTORE PUSH32 0x21C35DBE1B344A2488CF3321D6CE542F8E9F305544FF09E4993A62319A497C1F PUSH1 0x40 MSTORE PUSH1 0x55 PUSH1 0xB KECCAK256 PUSH1 0x14 MSTORE DUP1 PUSH1 0x40 MSTORE POP PUSH2 0xD694 PUSH1 0x0 MSTORE PUSH1 0x1 PUSH1 0x34 MSTORE8 POP POP PUSH1 0x17 PUSH1 0x1E KECCAK256 SWAP2 SWAP1 POP JUMP JUMPDEST PUSH1 0x0 PUSH2 0x4D8 DUP3 PUSH32 0x0 PUSH2 0x7C9 JUMP JUMPDEST PUSH1 0x0 PUSH1 0x60 PUSH32 0x9400000000000000000000000000000000000000000000000000000000000000 PUSH2 0x887 PUSH1 0x1 PUSH8 0xFFFFFFFFFFFFFFFF PUSH2 0x2D45 JUMP JUMPDEST PUSH8 0xFFFFFFFFFFFFFFFF AND DUP5 GT ISZERO PUSH2 0x902 JUMPI PUSH1 0x40 MLOAD PUSH32 0x3C55AB3B00000000000000000000000000000000000000000000000000000000 DUP2 MSTORE PUSH20 0xFFFFFFFFFFFFFFFFFFFFFFFFFFFFFFFFFFFFFFFF PUSH32 0x0 AND PUSH1 0x4 DUP3 ADD MSTORE PUSH1 0x24 ADD PUSH2 0x62C JUMP JUMPDEST DUP4 PUSH1 0x0 SUB PUSH2 0x9C7 JUMPI PUSH1 0x40 MLOAD PUSH32 0xD600000000000000000000000000000000000000000000000000000000000000 PUSH1 0x20 DUP3 ADD MSTORE PUSH32 0xFF00000000000000000000000000000000000000000000000000000000000000 DUP3 AND PUSH1 0x21 DUP3 ADD MSTORE PUSH32 0xFFFFFFFFFFFFFFFFFFFFFFFFFFFFFFFFFFFFFFFF000000000000000000000000 PUSH1 0x60 DUP8 SWAP1 SHL AND PUSH1 0x22 DUP3 ADD MSTORE PUSH32 0x8000000000000000000000000000000000000000000000000000000000000000 PUSH1 0x36 DUP3 ADD MSTORE PUSH1 0x37 ADD JUMPDEST PUSH1 0x40 MLOAD PUSH1 0x20 DUP2 DUP4 SUB SUB DUP2 MSTORE SWAP1 PUSH1 0x40 MSTORE SWAP2 POP PUSH2 0x1152 JUMP JUMPDEST PUSH1 0x7F DUP5 GT PUSH2 0xA60 JUMPI PUSH1 0x40 MLOAD PUSH32 0xD600000000000000000000000000000000000000000000000000000000000000 PUSH1 0x20 DUP3 ADD MSTORE PUSH32 0xFF00000000000000000000000000000000000000000000000000000000000000 DUP1 DUP4 AND PUSH1 0x21 DUP4 ADD MSTORE PUSH32 0xFFFFFFFFFFFFFFFFFFFFFFFFFFFFFFFFFFFFFFFF000000000000000000000000 PUSH1 0x60 DUP9 SWAP1 SHL AND PUSH1 0x22 DUP4 ADD MSTORE PUSH1 0xF8 DUP7 SWAP1 SHL AND PUSH1 0x36 DUP3 ADD MSTORE PUSH1 0x37 ADD PUSH2 0x9B1 JUMP JUMPDEST PUSH1 0xFF DUP5 GT PUSH2 0xB1F JUMPI PUSH1 0x40 MLOAD PUSH32 0xD700000000000000000000000000000000000000000000000000000000000000 PUSH1 0x20 DUP3 ADD MSTORE PUSH32 0xFF00000000000000000000000000000000000000000000000000000000000000 DUP1 DUP4 AND PUSH1 0x21 DUP4 ADD MSTORE PUSH32 0xFFFFFFFFFFFFFFFFFFFFFFFFFFFFFFFFFFFFFFFF000000000000000000000000 PUSH1 0x60 DUP9 SWAP1 SHL AND PUSH1 0x22 DUP4 ADD MSTORE PUSH32 0x8100000000000000000000000000000000000000000000000000000000000000 PUSH1 0x36 DUP4 ADD MSTORE PUSH1 0xF8 DUP7 SWAP1 SHL AND PUSH1 0x37 DUP3 ADD MSTORE PUSH1 0x38 ADD PUSH2 0x9B1 JUMP JUMPDEST PUSH2 0xFFFF DUP5 GT PUSH2 0xBFF JUMPI PUSH1 0x40 MLOAD PUSH32 0xD800000000000000000000000000000000000000000000000000000000000000 PUSH1 0x20 DUP3 ADD MSTORE PUSH32 0xFF00000000000000000000000000000000000000000000000000000000000000 DUP3 AND PUSH1 0x21 DUP3 ADD MSTORE PUSH32 0xFFFFFFFFFFFFFFFFFFFFFFFFFFFFFFFFFFFFFFFF000000000000000000000000 PUSH1 0x60 DUP8 SWAP1 SHL AND PUSH1 0x22 DUP3 ADD MSTORE PUSH32 0x8200000000000000000000000000000000000000000000000000000000000000 PUSH1 0x36 DUP3 ADD MSTORE PUSH32 0xFFFF000000000000000000000000000000000000000000000000000000000000 PUSH1 0xF0 DUP7 SWAP1 SHL AND PUSH1 0x37 DUP3 ADD MSTORE PUSH1 0x39 ADD PUSH2 0x9B1 JUMP JUMPDEST PUSH3 0xFFFFFF DUP5 GT PUSH2 0xCE0 JUMPI PUSH1 0x40 MLOAD PUSH32 0xD900000000000000000000000000000000000000000000000000000000000000 PUSH1 0x20 DUP3 ADD MSTORE PUSH32 0xFF00000000000000000000000000000000000000000000000000000000000000 DUP3 AND PUSH1 0x21 DUP3 ADD MSTORE PUSH32 0xFFFFFFFFFFFFFFFFFFFFFFFFFFFFFFFFFFFFFFFF000000000000000000000000 PUSH1 0x60 DUP8 SWAP1 SHL AND PUSH1 0x22 DUP3 ADD MSTORE PUSH32 0x8300000000000000000000000000000000000000000000000000000000000000 PUSH1 0x36 DUP3 ADD MSTORE PUSH32 0xFFFFFF0000000000000000000000000000000000000000000000000000000000 PUSH1 0xE8 DUP7 SWAP1 SHL AND PUSH1 0x37 DUP3 ADD MSTORE PUSH1 0x3A ADD PUSH2 0x9B1 JUMP JUMPDEST PUSH4 0xFFFFFFFF DUP5 GT PUSH2 0xDC2 JUMPI PUSH1 0x40 MLOAD PUSH32 0xDA00000000000000000000000000000000000000000000000000000000000000 PUSH1 0x20 DUP3 ADD MSTORE PUSH32 0xFF00000000000000000000000000000000000000000000000000000000000000 DUP3 AND PUSH1 0x21 DUP3 ADD MSTORE PUSH32 0xFFFFFFFFFFFFFFFFFFFFFFFFFFFFFFFFFFFFFFFF000000000000000000000000 PUSH1 0x60 DUP8 SWAP1 SHL AND PUSH1 0x22 DUP3 ADD MSTORE PUSH32 0x8400000000000000000000000000000000000000000000000000000000000000 PUSH1 0x36 DUP3 ADD MSTORE PUSH32 0xFFFFFFFF00000000000000000000000000000000000000000000000000000000 PUSH1 0xE0 DUP7 SWAP1 SHL AND PUSH1 0x37 DUP3 ADD MSTORE PUSH1 0x3B ADD PUSH2 0x9B1 JUMP JUMPDEST PUSH5 0xFFFFFFFFFF DUP5 GT PUSH2 0xEA5 JUMPI PUSH1 0x40 MLOAD PUSH32 0xDB00000000000000000000000000000000000000000000000000000000000000 PUSH1 0x20 DUP3 ADD MSTORE PUSH32 0xFF00000000000000000000000000000000000000000000000000000000000000 DUP3 AND PUSH1 0x21 DUP3 ADD MSTORE PUSH32 0xFFFFFFFFFFFFFFFFFFFFFFFFFFFFFFFFFFFFFFFF000000000000000000000000 PUSH1 0x60 DUP8 SWAP1 SHL AND PUSH1 0x22 DUP3 ADD MSTORE PUSH32 0x8500000000000000000000000000000000000000000000000000000000000000 PUSH1 0x36 DUP3 ADD MSTORE PUSH32 0xFFFFFFFFFF000000000000000000000000000000000000000000000000000000 PUSH1 0xD8 DUP7 SWAP1 SHL AND PUSH1 0x37 DUP3 ADD MSTORE PUSH1 0x3C ADD PUSH2 0x9B1 JUMP JUMPDEST PUSH6 0xFFFFFFFFFFFF DUP5 GT PUSH2 0xF89 JUMPI PUSH1 0x40 MLOAD PUSH32 0xDC00000000000000000000000000000000000000000000000000000000000000 PUSH1 0x20 DUP3 ADD MSTORE PUSH32 0xFF00000000000000000000000000000000000000000000000000000000000000 DUP3 AND PUSH1 0x21 DUP3 ADD MSTORE PUSH32 0xFFFFFFFFFFFFFFFFFFFFFFFFFFFFFFFFFFFFFFFF000000000000000000000000 PUSH1 0x60 DUP8 SWAP1 SHL AND PUSH1 0x22 DUP3 ADD MSTORE PUSH32 0x8600000000000000000000000000000000000000000000000000000000000000 PUSH1 0x36 DUP3 ADD MSTORE PUSH32 0xFFFFFFFFFFFF0000000000000000000000000000000000000000000000000000 PUSH1 0xD0 DUP7 SWAP1 SHL AND PUSH1 0x37 DUP3 ADD MSTORE PUSH1 0x3D ADD PUSH2 0x9B1 JUMP JUMPDEST PUSH7 0xFFFFFFFFFFFFFF DUP5 GT PUSH2 0x106E JUMPI PUSH1 0x40 MLOAD PUSH32 0xDD00000000000000000000000000000000000000000000000000000000000000 PUSH1 0x20 DUP3 ADD MSTORE PUSH32 0xFF00000000000000000000000000000000000000000000000000000000000000 DUP3 AND PUSH1 0x21 DUP3 ADD MSTORE PUSH32 0xFFFFFFFFFFFFFFFFFFFFFFFFFFFFFFFFFFFFFFFF000000000000000000000000 PUSH1 0x60 DUP8 SWAP1 SHL AND PUSH1 0x22 DUP3 ADD MSTORE PUSH32 0x8700000000000000000000000000000000000000000000000000000000000000 PUSH1 0x36 DUP3 ADD MSTORE PUSH32 0xFFFFFFFFFFFFFF00000000000000000000000000000000000000000000000000 PUSH1 0xC8 DUP7 SWAP1 SHL AND PUSH1 0x37 DUP3 ADD MSTORE PUSH1 0x3E ADD PUSH2 0x9B1 JUMP JUMPDEST PUSH1 0x40 MLOAD PUSH32 0xDE00000000000000000000000000000000000000000000000000000000000000 PUSH1 0x20 DUP3 ADD MSTORE PUSH32 0xFF00000000000000000000000000000000000000000000000000000000000000 DUP3 AND PUSH1 0x21 DUP3 ADD MSTORE PUSH32 0xFFFFFFFFFFFFFFFFFFFFFFFFFFFFFFFFFFFFFFFF000000000000000000000000 PUSH1 0x60 DUP8 SWAP1 SHL AND PUSH1 0x22 DUP3 ADD MSTORE PUSH32 0x8800000000000000000000000000000000000000000000000000000000000000 PUSH1 0x36 DUP3 ADD MSTORE PUSH32 0xFFFFFFFFFFFFFFFF000000000000000000000000000000000000000000000000 PUSH1 0xC0 DUP7 SWAP1 SHL AND PUSH1 0x37 DUP3 ADD MSTORE PUSH1 0x3F ADD PUSH1 0x40 MLOAD PUSH1 0x20 DUP2 DUP4 SUB SUB DUP2 MSTORE SWAP1 PUSH1 0x40 MSTORE SWAP2 POP JUMPDEST POP DUP1 MLOAD PUSH1 0x20 SWAP1 SWAP2 ADD KECCAK256 SWAP4 SWAP3 POP POP POP JUMP JUMPDEST PUSH1 0x0 PUSH2 0x4D8 PUSH2 0x11E2 PUSH1 0x40 DUP1 MLOAD NUMBER PUSH32 0xFFFFFFFFFFFFFFFFFFFFFFFFFFFFFFFFFFFFFFFFFFFFFFFFFFFFFFFFFFFFFFE0 DUP2 ADD BLOCKHASH PUSH1 0x20 DUP4 ADD MSTORE COINBASE SWAP3 DUP3 ADD SWAP3 SWAP1 SWAP3 MSTORE PUSH1 0x60 DUP2 ADD SWAP2 SWAP1 SWAP2 MSTORE TIMESTAMP PUSH1 0x80 DUP3 ADD MSTORE PREVRANDAO PUSH1 0xA0 DUP3 ADD MSTORE CHAINID PUSH1 0xC0 DUP3 ADD MSTORE CALLER PUSH1 0xE0 DUP3 ADD MSTORE PUSH1 0x0 SWAP1 PUSH2 0x100 ADD PUSH1 0x40 MLOAD PUSH1 0x20 DUP2 DUP4 SUB SUB DUP2 MSTORE SWAP1 PUSH1 0x40 MSTORE DUP1 MLOAD SWAP1 PUSH1 0x20 ADD KECCAK256 SWAP1 POP SWAP1 JUMP JUMPDEST DUP4 PUSH2 0x1505 JUMP JUMPDEST PUSH1 0x0 PUSH2 0x126F PUSH2 0x1268 PUSH1 0x40 DUP1 MLOAD NUMBER PUSH32 0xFFFFFFFFFFFFFFFFFFFFFFFFFFFFFFFFFFFFFFFFFFFFFFFFFFFFFFFFFFFFFFE0 DUP2 ADD BLOCKHASH PUSH1 0x20 DUP4 ADD MSTORE COINBASE SWAP3 DUP3 ADD SWAP3 SWAP1 SWAP3 MSTORE PUSH1 0x60 DUP2 ADD SWAP2 SWAP1 SWAP2 MSTORE TIMESTAMP PUSH1 0x80 DUP3 ADD MSTORE PREVRANDAO PUSH1 0xA0 DUP3 ADD MSTORE CHAINID PUSH1 0xC0 DUP3 ADD MSTORE CALLER PUSH1 0xE0 DUP3 ADD MSTORE PUSH1 0x0 SWAP1 PUSH2 0x100 ADD PUSH1 0x40 MLOAD PUSH1 0x20 DUP2 DUP4 SUB SUB DUP2 MSTORE SWAP1 PUSH1 0x40 MSTORE DUP1 MLOAD SWAP1 PUSH1 0x20 ADD KECCAK256 SWAP1 POP SWAP1 JUMP JUMPDEST DUP5 DUP5 PUSH2 0x539 JUMP JUMPDEST SWAP4 SWAP3 POP POP POP JUMP JUMPDEST PUSH1 0x0 PUSH2 0x126F DUP4 DUP4 PUSH32 0x0 PUSH2 0x19ED JUMP JUMPDEST PUSH1 0x0 DUP5 MLOAD PUSH1 0x20 DUP7 ADD DUP5 MLOAD CREATE SWAP1 POP PUSH2 0x12B9 DUP2 PUSH2 0x23D3 JUMP JUMPDEST PUSH1 0x40 MLOAD PUSH20 0xFFFFFFFFFFFFFFFFFFFFFFFFFFFFFFFFFFFFFFFF DUP3 AND SWAP1 PUSH32 0x4DB17DD5E4732FB6DA34A148104A592783CA119A1E7BB8829EBA6CBADEF0B511 SWAP1 PUSH1 0x0 SWAP1 LOG2 PUSH1 0x0 DUP1 DUP3 PUSH20 0xFFFFFFFFFFFFFFFFFFFFFFFFFFFFFFFFFFFFFFFF AND DUP6 PUSH1 0x20 ADD MLOAD DUP8 PUSH1 0x40 MLOAD PUSH2 0x1327 SWAP2 SWAP1 PUSH2 0x2D29 JUMP JUMPDEST PUSH1 0x0 PUSH1 0x40 MLOAD DUP1 DUP4 SUB DUP2 DUP6 DUP8 GAS CALL SWAP3 POP POP POP RETURNDATASIZE DUP1 PUSH1 0x0 DUP2 EQ PUSH2 0x1364 JUMPI PUSH1 0x40 MLOAD SWAP2 POP PUSH1 0x1F NOT PUSH1 0x3F RETURNDATASIZE ADD AND DUP3 ADD PUSH1 0x40 MSTORE RETURNDATASIZE DUP3 MSTORE RETURNDATASIZE PUSH1 0x0 PUSH1 0x20 DUP5 ADD RETURNDATACOPY PUSH2 0x1369 JUMP JUMPDEST PUSH1 0x60 SWAP2 POP JUMPDEST POP SWAP2 POP SWAP2 POP DUP2 PUSH2 0x13C9 JUMPI PUSH32 0x0 DUP2 PUSH1 0x40 MLOAD PUSH32 0xA57CA23900000000000000000000000000000000000000000000000000000000 DUP2 MSTORE PUSH1 0x4 ADD PUSH2 0x62C SWAP3 SWAP2 SWAP1 PUSH2 0x2D94 JUMP JUMPDEST PUSH20 0xFFFFFFFFFFFFFFFFFFFFFFFFFFFFFFFFFFFFFFFF PUSH32 0x0 AND BALANCE ISZERO PUSH2 0x14FB JUMPI DUP4 PUSH20 0xFFFFFFFFFFFFFFFFFFFFFFFFFFFFFFFFFFFFFFFF AND PUSH32 0x0 PUSH20 0xFFFFFFFFFFFFFFFFFFFFFFFFFFFFFFFFFFFFFFFF AND BALANCE PUSH1 0x40 MLOAD PUSH1 0x0 PUSH1 0x40 MLOAD DUP1 DUP4 SUB DUP2 DUP6 DUP8 GAS CALL SWAP3 POP POP POP RETURNDATASIZE DUP1 PUSH1 0x0 DUP2 EQ PUSH2 0x1495 JUMPI PUSH1 0x40 MLOAD SWAP2 POP PUSH1 0x1F NOT PUSH1 0x3F RETURNDATASIZE ADD AND DUP3 ADD PUSH1 0x40 MSTORE RETURNDATASIZE DUP3 MSTORE RETURNDATASIZE PUSH1 0x0 PUSH1 0x20 DUP5 ADD RETURNDATACOPY PUSH2 0x149A JUMP JUMPDEST PUSH1 0x60 SWAP2 POP JUMPDEST POP SWAP1 SWAP3 POP SWAP1 POP DUP2 PUSH2 0x14FB JUMPI PUSH32 0x0 DUP2 PUSH1 0x40 MLOAD PUSH32 0xC2B3F44500000000000000000000000000000000000000000000000000000000 DUP2 MSTORE PUSH1 0x4 ADD PUSH2 0x62C SWAP3 SWAP2 SWAP1 PUSH2 0x2D94 JUMP JUMPDEST POP POP SWAP5 SWAP4 POP POP POP POP JUMP JUMPDEST PUSH1 0x0 DUP1 PUSH2 0x1511 DUP5 PUSH2 0x20DB JUMP JUMPDEST SWAP1 POP PUSH1 0x0 PUSH1 0x40 MLOAD DUP1 PUSH1 0x40 ADD PUSH1 0x40 MSTORE DUP1 PUSH1 0x10 DUP2 MSTORE PUSH1 0x20 ADD PUSH32 0x67363D3D37363D34F03D5260086018F300000000000000000000000000000000 DUP2 MSTORE POP SWAP1 POP PUSH1 0x0 DUP3 DUP3 MLOAD PUSH1 0x20 DUP5 ADD PUSH1 0x0 CREATE2 SWAP1 POP PUSH20 0xFFFFFFFFFFFFFFFFFFFFFFFFFFFFFFFFFFFFFFFF DUP2 AND PUSH2 0x15E0 JUMPI PUSH1 0x40 MLOAD PUSH32 0xC05CEE7A00000000000000000000000000000000000000000000000000000000 DUP2 MSTORE PUSH20 0xFFFFFFFFFFFFFFFFFFFFFFFFFFFFFFFFFFFFFFFF PUSH32 0x0 AND PUSH1 0x4 DUP3 ADD MSTORE PUSH1 0x24 ADD PUSH2 0x62C JUMP JUMPDEST PUSH1 0x40 MLOAD DUP4 SWAP1 PUSH20 0xFFFFFFFFFFFFFFFFFFFFFFFFFFFFFFFFFFFFFFFF DUP4 AND SWAP1 PUSH32 0x2FEEA65DD4E9F9CBD86B74B7734210C59A1B2981B5B137BD0EE3E208200C9067 SWAP1 PUSH1 0x0 SWAP1 LOG3 PUSH2 0x162C DUP4 PUSH2 0x823 JUMP JUMPDEST SWAP4 POP PUSH1 0x0 DUP2 PUSH20 0xFFFFFFFFFFFFFFFFFFFFFFFFFFFFFFFFFFFFFFFF AND CALLVALUE DUP8 PUSH1 0x40 MLOAD PUSH2 0x1656 SWAP2 SWAP1 PUSH2 0x2D29 JUMP JUMPDEST PUSH1 0x0 PUSH1 0x40 MLOAD DUP1 DUP4 SUB DUP2 DUP6 DUP8 GAS CALL SWAP3 POP POP POP RETURNDATASIZE DUP1 PUSH1 0x0 DUP2 EQ PUSH2 0x1693 JUMPI PUSH1 0x40 MLOAD SWAP2 POP PUSH1 0x1F NOT PUSH1 0x3F RETURNDATASIZE ADD AND DUP3 ADD PUSH1 0x40 MSTORE RETURNDATASIZE DUP3 MSTORE RETURNDATASIZE PUSH1 0x0 PUSH1 0x20 DUP5 ADD RETURNDATACOPY PUSH2 0x1698 JUMP JUMPDEST PUSH1 0x60 SWAP2 POP JUMPDEST POP POP SWAP1 POP PUSH2 0x16A6 DUP2 DUP7 PUSH2 0x24FF JUMP JUMPDEST PUSH1 0x40 MLOAD PUSH20 0xFFFFFFFFFFFFFFFFFFFFFFFFFFFFFFFFFFFFFFFF DUP7 AND SWAP1 PUSH32 0x4DB17DD5E4732FB6DA34A148104A592783CA119A1E7BB8829EBA6CBADEF0B511 SWAP1 PUSH1 0x0 SWAP1 LOG2 POP POP POP POP SWAP3 SWAP2 POP POP JUMP JUMPDEST PUSH1 0x0 DUP1 PUSH2 0x16FD DUP8 PUSH2 0x20DB JUMP JUMPDEST SWAP1 POP DUP1 DUP7 MLOAD PUSH1 0x20 DUP9 ADD DUP7 MLOAD CREATE2 SWAP2 POP PUSH2 0x1714 DUP3 PUSH2 0x23D3 JUMP JUMPDEST PUSH1 0x40 MLOAD DUP2 SWAP1 PUSH20 0xFFFFFFFFFFFFFFFFFFFFFFFFFFFFFFFFFFFFFFFF DUP5 AND SWAP1 PUSH32 0xB8FDA7E00C6B06A2B54E58521BC5894FEE35F1090E5A3BB6390BFE2B98B497F7 SWAP1 PUSH1 0x0 SWAP1 LOG3 PUSH1 0x0 DUP1 DUP4 PUSH20 0xFFFFFFFFFFFFFFFFFFFFFFFFFFFFFFFFFFFFFFFF AND DUP7 PUSH1 0x20 ADD MLOAD DUP9 PUSH1 0x40 MLOAD PUSH2 0x1784 SWAP2 SWAP1 PUSH2 0x2D29 JUMP JUMPDEST PUSH1 0x0 PUSH1 0x40 MLOAD DUP1 DUP4 SUB DUP2 DUP6 DUP8 GAS CALL SWAP3 POP POP POP RETURNDATASIZE DUP1 PUSH1 0x0 DUP2 EQ PUSH2 0x17C1 JUMPI PUSH1 0x40 MLOAD SWAP2 POP PUSH1 0x1F NOT PUSH1 0x3F RETURNDATASIZE ADD AND DUP3 ADD PUSH1 0x40 MSTORE RETURNDATASIZE DUP3 MSTORE RETURNDATASIZE PUSH1 0x0 PUSH1 0x20 DUP5 ADD RETURNDATACOPY PUSH2 0x17C6 JUMP JUMPDEST PUSH1 0x60 SWAP2 POP JUMPDEST POP SWAP2 POP SWAP2 POP DUP2 PUSH2 0x1826 JUMPI PUSH32 0x0 DUP2 PUSH1 0x40 MLOAD PUSH32 0xA57CA23900000000000000000000000000000000000000000000000000000000 DUP2 MSTORE PUSH1 0x4 ADD PUSH2 0x62C SWAP3 SWAP2 SWAP1 PUSH2 0x2D94 JUMP JUMPDEST PUSH20 0xFFFFFFFFFFFFFFFFFFFFFFFFFFFFFFFFFFFFFFFF PUSH32 0x0 AND BALANCE ISZERO PUSH2 0x1958 JUMPI DUP5 PUSH20 0xFFFFFFFFFFFFFFFFFFFFFFFFFFFFFFFFFFFFFFFF AND PUSH32 0x0 PUSH20 0xFFFFFFFFFFFFFFFFFFFFFFFFFFFFFFFFFFFFFFFF AND BALANCE PUSH1 0x40 MLOAD PUSH1 0x0 PUSH1 0x40 MLOAD DUP1 DUP4 SUB DUP2 DUP6 DUP8 GAS CALL SWAP3 POP POP POP RETURNDATASIZE DUP1 PUSH1 0x0 DUP2 EQ PUSH2 0x18F2 JUMPI PUSH1 0x40 MLOAD SWAP2 POP PUSH1 0x1F NOT PUSH1 0x3F RETURNDATASIZE ADD AND DUP3 ADD PUSH1 0x40 MSTORE RETURNDATASIZE DUP3 MSTORE RETURNDATASIZE PUSH1 0x0 PUSH1 0x20 DUP5 ADD RETURNDATACOPY PUSH2 0x18F7 JUMP JUMPDEST PUSH1 0x60 SWAP2 POP JUMPDEST POP SWAP1 SWAP3 POP SWAP1 POP DUP2 PUSH2 0x1958 JUMPI PUSH32 0x0 DUP2 PUSH1 0x40 MLOAD PUSH32 0xC2B3F44500000000000000000000000000000000000000000000000000000000 DUP2 MSTORE PUSH1 0x4 ADD PUSH2 0x62C SWAP3 SWAP2 SWAP1 PUSH2 0x2D94 JUMP JUMPDEST POP POP POP SWAP6 SWAP5 POP POP POP POP POP JUMP JUMPDEST PUSH1 0x0 PUSH2 0x7B3 PUSH2 0x19E4 PUSH1 0x40 DUP1 MLOAD NUMBER PUSH32 0xFFFFFFFFFFFFFFFFFFFFFFFFFFFFFFFFFFFFFFFFFFFFFFFFFFFFFFFFFFFFFFE0 DUP2 ADD BLOCKHASH PUSH1 0x20 DUP4 ADD MSTORE COINBASE SWAP3 DUP3 ADD SWAP3 SWAP1 SWAP3 MSTORE PUSH1 0x60 DUP2 ADD SWAP2 SWAP1 SWAP2 MSTORE TIMESTAMP PUSH1 0x80 DUP3 ADD MSTORE PREVRANDAO PUSH1 0xA0 DUP3 ADD MSTORE CHAINID PUSH1 0xC0 DUP3 ADD MSTORE CALLER PUSH1 0xE0 DUP3 ADD MSTORE PUSH1 0x0 SWAP1 PUSH2 0x100 ADD PUSH1 0x40 MLOAD PUSH1 0x20 DUP2 DUP4 SUB SUB DUP2 MSTORE SWAP1 PUSH1 0x40 MSTORE DUP1 MLOAD SWAP1 PUSH1 0x20 ADD KECCAK256 SWAP1 POP SWAP1 JUMP JUMPDEST DUP6 DUP6 DUP6 CALLER PUSH2 0x16F1 JUMP JUMPDEST PUSH1 0x0 PUSH1 0x40 MLOAD DUP4 PUSH1 0x40 DUP3 ADD MSTORE DUP5 PUSH1 0x20 DUP3 ADD MSTORE DUP3 DUP2 MSTORE PUSH1 0xB DUP2 ADD SWAP1 POP PUSH1 0xFF DUP2 MSTORE8 PUSH1 0x55 SWAP1 KECCAK256 SWAP5 SWAP4 POP POP POP POP JUMP JUMPDEST PUSH1 0x0 DUP1 PUSH2 0x1A23 DUP8 PUSH2 0x20DB JUMP JUMPDEST SWAP1 POP PUSH1 0x0 PUSH1 0x40 MLOAD DUP1 PUSH1 0x40 ADD PUSH1 0x40 MSTORE DUP1 PUSH1 0x10 DUP2 MSTORE PUSH1 0x20 ADD PUSH32 0x67363D3D37363D34F03D5260086018F300000000000000000000000000000000 DUP2 MSTORE POP SWAP1 POP PUSH1 0x0 DUP3 DUP3 MLOAD PUSH1 0x20 DUP5 ADD PUSH1 0x0 CREATE2 SWAP1 POP PUSH20 0xFFFFFFFFFFFFFFFFFFFFFFFFFFFFFFFFFFFFFFFF DUP2 AND PUSH2 0x1AF2 JUMPI PUSH1 0x40 MLOAD PUSH32 0xC05CEE7A00000000000000000000000000000000000000000000000000000000 DUP2 MSTORE PUSH20 0xFFFFFFFFFFFFFFFFFFFFFFFFFFFFFFFFFFFFFFFF PUSH32 0x0 AND PUSH1 0x4 DUP3 ADD MSTORE PUSH1 0x24 ADD PUSH2 0x62C JUMP JUMPDEST PUSH1 0x40 MLOAD DUP4 SWAP1 PUSH20 0xFFFFFFFFFFFFFFFFFFFFFFFFFFFFFFFFFFFFFFFF DUP4 AND SWAP1 PUSH32 0x2FEEA65DD4E9F9CBD86B74B7734210C59A1B2981B5B137BD0EE3E208200C9067 SWAP1 PUSH1 0x0 SWAP1 LOG3 PUSH2 0x1B3E DUP4 PUSH2 0x823 JUMP JUMPDEST SWAP4 POP PUSH1 0x0 DUP2 PUSH20 0xFFFFFFFFFFFFFFFFFFFFFFFFFFFFFFFFFFFFFFFF AND DUP8 PUSH1 0x0 ADD MLOAD DUP11 PUSH1 0x40 MLOAD PUSH2 0x1B6C SWAP2 SWAP1 PUSH2 0x2D29 JUMP JUMPDEST PUSH1 0x0 PUSH1 0x40 MLOAD DUP1 DUP4 SUB DUP2 DUP6 DUP8 GAS CALL SWAP3 POP POP POP RETURNDATASIZE DUP1 PUSH1 0x0 DUP2 EQ PUSH2 0x1BA9 JUMPI PUSH1 0x40 MLOAD SWAP2 POP PUSH1 0x1F NOT PUSH1 0x3F RETURNDATASIZE ADD AND DUP3 ADD PUSH1 0x40 MSTORE RETURNDATASIZE DUP3 MSTORE RETURNDATASIZE PUSH1 0x0 PUSH1 0x20 DUP5 ADD RETURNDATACOPY PUSH2 0x1BAE JUMP JUMPDEST PUSH1 0x60 SWAP2 POP JUMPDEST POP POP SWAP1 POP PUSH2 0x1BBC DUP2 DUP7 PUSH2 0x24FF JUMP JUMPDEST PUSH1 0x40 MLOAD PUSH20 0xFFFFFFFFFFFFFFFFFFFFFFFFFFFFFFFFFFFFFFFF DUP7 AND SWAP1 PUSH32 0x4DB17DD5E4732FB6DA34A148104A592783CA119A1E7BB8829EBA6CBADEF0B511 SWAP1 PUSH1 0x0 SWAP1 LOG2 PUSH1 0x60 DUP6 PUSH20 0xFFFFFFFFFFFFFFFFFFFFFFFFFFFFFFFFFFFFFFFF AND DUP9 PUSH1 0x20 ADD MLOAD DUP11 PUSH1 0x40 MLOAD PUSH2 0x1C29 SWAP2 SWAP1 PUSH2 0x2D29 JUMP JUMPDEST PUSH1 0x0 PUSH1 0x40 MLOAD DUP1 DUP4 SUB DUP2 DUP6 DUP8 GAS CALL SWAP3 POP POP POP RETURNDATASIZE DUP1 PUSH1 0x0 DUP2 EQ PUSH2 0x1C66 JUMPI PUSH1 0x40 MLOAD SWAP2 POP PUSH1 0x1F NOT PUSH1 0x3F RETURNDATASIZE ADD AND DUP3 ADD PUSH1 0x40 MSTORE RETURNDATASIZE DUP3 MSTORE RETURNDATASIZE PUSH1 0x0 PUSH1 0x20 DUP5 ADD RETURNDATACOPY PUSH2 0x1C6B JUMP JUMPDEST PUSH1 0x60 SWAP2 POP JUMPDEST POP SWAP1 SWAP3 POP SWAP1 POP DUP2 PUSH2 0x1CCC JUMPI PUSH32 0x0 DUP2 PUSH1 0x40 MLOAD PUSH32 0xA57CA23900000000000000000000000000000000000000000000000000000000 DUP2 MSTORE PUSH1 0x4 ADD PUSH2 0x62C SWAP3 SWAP2 SWAP1 PUSH2 0x2D94 JUMP JUMPDEST PUSH20 0xFFFFFFFFFFFFFFFFFFFFFFFFFFFFFFFFFFFFFFFF PUSH32 0x0 AND BALANCE ISZERO PUSH2 0x1DFE JUMPI DUP7 PUSH20 0xFFFFFFFFFFFFFFFFFFFFFFFFFFFFFFFFFFFFFFFF AND PUSH32 0x0 PUSH20 0xFFFFFFFFFFFFFFFFFFFFFFFFFFFFFFFFFFFFFFFF AND BALANCE PUSH1 0x40 MLOAD PUSH1 0x0 PUSH1 0x40 MLOAD DUP1 DUP4 SUB DUP2 DUP6 DUP8 GAS CALL SWAP3 POP POP POP RETURNDATASIZE DUP1 PUSH1 0x0 DUP2 EQ PUSH2 0x1D98 JUMPI PUSH1 0x40 MLOAD SWAP2 POP PUSH1 0x1F NOT PUSH1 0x3F RETURNDATASIZE ADD AND DUP3 ADD PUSH1 0x40 MSTORE RETURNDATASIZE DUP3 MSTORE RETURNDATASIZE PUSH1 0x0 PUSH1 0x20 DUP5 ADD RETURNDATACOPY PUSH2 0x1D9D JUMP JUMPDEST PUSH1 0x60 SWAP2 POP JUMPDEST POP SWAP1 SWAP3 POP SWAP1 POP DUP2 PUSH2 0x1DFE JUMPI PUSH32 0x0 DUP2 PUSH1 0x40 MLOAD PUSH32 0xC2B3F44500000000000000000000000000000000000000000000000000000000 DUP2 MSTORE PUSH1 0x4 ADD PUSH2 0x62C SWAP3 SWAP2 SWAP1 PUSH2 0x2D94 JUMP JUMPDEST POP POP POP POP POP SWAP6 SWAP5 POP POP POP POP POP JUMP JUMPDEST PUSH1 0x0 PUSH2 0x3DD PUSH2 0x1E8C PUSH1 0x40 DUP1 MLOAD NUMBER PUSH32 0xFFFFFFFFFFFFFFFFFFFFFFFFFFFFFFFFFFFFFFFFFFFFFFFFFFFFFFFFFFFFFFE0 DUP2 ADD BLOCKHASH PUSH1 0x20 DUP4 ADD MSTORE COINBASE SWAP3 DUP3 ADD SWAP3 SWAP1 SWAP3 MSTORE PUSH1 0x60 DUP2 ADD SWAP2 SWAP1 SWAP2 MSTORE TIMESTAMP PUSH1 0x80 DUP3 ADD MSTORE PREVRANDAO PUSH1 0xA0 DUP3 ADD MSTORE CHAINID PUSH1 0xC0 DUP3 ADD MSTORE CALLER PUSH1 0xE0 DUP3 ADD MSTORE PUSH1 0x0 SWAP1 PUSH2 0x100 ADD PUSH1 0x40 MLOAD PUSH1 0x20 DUP2 DUP4 SUB SUB DUP2 MSTORE SWAP1 PUSH1 0x40 MSTORE DUP1 MLOAD SWAP1 PUSH1 0x20 ADD KECCAK256 SWAP1 POP SWAP1 JUMP JUMPDEST DUP7 DUP7 DUP7 DUP7 PUSH2 0x16F1 JUMP JUMPDEST PUSH1 0x0 PUSH2 0x3DD DUP6 DUP6 DUP6 DUP6 CALLER PUSH2 0x16F1 JUMP JUMPDEST PUSH1 0x0 PUSH2 0x3DD PUSH2 0x1F24 PUSH1 0x40 DUP1 MLOAD NUMBER PUSH32 0xFFFFFFFFFFFFFFFFFFFFFFFFFFFFFFFFFFFFFFFFFFFFFFFFFFFFFFFFFFFFFFE0 DUP2 ADD BLOCKHASH PUSH1 0x20 DUP4 ADD MSTORE COINBASE SWAP3 DUP3 ADD SWAP3 SWAP1 SWAP3 MSTORE PUSH1 0x60 DUP2 ADD SWAP2 SWAP1 SWAP2 MSTORE TIMESTAMP PUSH1 0x80 DUP3 ADD MSTORE PREVRANDAO PUSH1 0xA0 DUP3 ADD MSTORE CHAINID PUSH1 0xC0 DUP3 ADD MSTORE CALLER PUSH1 0xE0 DUP3 ADD MSTORE PUSH1 0x0 SWAP1 PUSH2 0x100 ADD PUSH1 0x40 MLOAD PUSH1 0x20 DUP2 DUP4 SUB SUB DUP2 MSTORE SWAP1 PUSH1 0x40 MSTORE DUP1 MLOAD SWAP1 PUSH1 0x20 ADD KECCAK256 SWAP1 POP SWAP1 JUMP JUMPDEST DUP7 DUP7 DUP7 DUP7 PUSH2 0x1A17 JUMP JUMPDEST PUSH1 0x0 DUP1 DUP4 PUSH1 0x60 SHL SWAP1 POP PUSH1 0x40 MLOAD PUSH32 0x3D602D80600A3D3981F3363D3D373D3D3D363D73000000000000000000000000 DUP2 MSTORE DUP2 PUSH1 0x14 DUP3 ADD MSTORE PUSH32 0x5AF43D82803E903D91602B57FD5BF30000000000000000000000000000000000 PUSH1 0x28 DUP3 ADD MSTORE PUSH1 0x37 DUP2 PUSH1 0x0 CREATE SWAP3 POP POP PUSH20 0xFFFFFFFFFFFFFFFFFFFFFFFFFFFFFFFFFFFFFFFF DUP3 AND PUSH2 0x2016 JUMPI PUSH1 0x40 MLOAD PUSH32 0xC05CEE7A00000000000000000000000000000000000000000000000000000000 DUP2 MSTORE PUSH20 0xFFFFFFFFFFFFFFFFFFFFFFFFFFFFFFFFFFFFFFFF PUSH32 0x0 AND PUSH1 0x4 DUP3 ADD MSTORE PUSH1 0x24 ADD PUSH2 0x62C JUMP JUMPDEST PUSH1 0x40 MLOAD PUSH20 0xFFFFFFFFFFFFFFFFFFFFFFFFFFFFFFFFFFFFFFFF DUP4 AND SWAP1 PUSH32 0x4DB17DD5E4732FB6DA34A148104A592783CA119A1E7BB8829EBA6CBADEF0B511 SWAP1 PUSH1 0x0 SWAP1 LOG2 PUSH1 0x0 DUP1 DUP4 PUSH20 0xFFFFFFFFFFFFFFFFFFFFFFFFFFFFFFFFFFFFFFFF AND CALLVALUE DUP7 PUSH1 0x40 MLOAD PUSH2 0x2080 SWAP2 SWAP1 PUSH2 0x2D29 JUMP JUMPDEST PUSH1 0x0 PUSH1 0x40 MLOAD DUP1 DUP4 SUB DUP2 DUP6 DUP8 GAS CALL SWAP3 POP POP POP RETURNDATASIZE DUP1 PUSH1 0x0 DUP2 EQ PUSH2 0x20BD JUMPI PUSH1 0x40 MLOAD SWAP2 POP PUSH1 0x1F NOT PUSH1 0x3F RETURNDATASIZE ADD AND DUP3 ADD PUSH1 0x40 MSTORE RETURNDATASIZE DUP3 MSTORE RETURNDATASIZE PUSH1 0x0 PUSH1 0x20 DUP5 ADD RETURNDATACOPY PUSH2 0x20C2 JUMP JUMPDEST PUSH1 0x60 SWAP2 POP JUMPDEST POP SWAP2 POP SWAP2 POP PUSH2 0x20D2 DUP3 DUP3 DUP9 PUSH2 0x247D JUMP JUMPDEST POP POP POP SWAP3 SWAP2 POP POP JUMP JUMPDEST PUSH1 0x0 DUP1 PUSH1 0x0 PUSH2 0x20E9 DUP5 PUSH2 0x25B3 JUMP JUMPDEST SWAP1 SWAP3 POP SWAP1 POP PUSH1 0x0 DUP3 PUSH1 0x2 DUP2 GT ISZERO PUSH2 0x2102 JUMPI PUSH2 0x2102 PUSH2 0x2E02 JUMP JUMPDEST EQ DUP1 ISZERO PUSH2 0x2120 JUMPI POP PUSH1 0x0 DUP2 PUSH1 0x2 DUP2 GT ISZERO PUSH2 0x211E JUMPI PUSH2 0x211E PUSH2 0x2E02 JUMP JUMPDEST EQ JUMPDEST ISZERO PUSH2 0x215E JUMPI PUSH1 0x40 DUP1 MLOAD CALLER PUSH1 0x20 DUP3 ADD MSTORE CHAINID SWAP2 DUP2 ADD SWAP2 SWAP1 SWAP2 MSTORE PUSH1 0x60 DUP2 ADD DUP6 SWAP1 MSTORE PUSH1 0x80 ADD PUSH1 0x40 MLOAD PUSH1 0x20 DUP2 DUP4 SUB SUB DUP2 MSTORE SWAP1 PUSH1 0x40 MSTORE DUP1 MLOAD SWAP1 PUSH1 0x20 ADD KECCAK256 SWAP3 POP PUSH2 0x23CC JUMP JUMPDEST PUSH1 0x0 DUP3 PUSH1 0x2 DUP2 GT ISZERO PUSH2 0x2172 JUMPI PUSH2 0x2172 PUSH2 0x2E02 JUMP JUMPDEST EQ DUP1 ISZERO PUSH2 0x2190 JUMPI POP PUSH1 0x1 DUP2 PUSH1 0x2 DUP2 GT ISZERO PUSH2 0x218E JUMPI PUSH2 0x218E PUSH2 0x2E02 JUMP JUMPDEST EQ JUMPDEST ISZERO PUSH2 0x21B0 JUMPI PUSH2 0x21A9 CALLER DUP6 PUSH1 0x0 SWAP2 DUP3 MSTORE PUSH1 0x20 MSTORE PUSH1 0x40 SWAP1 KECCAK256 SWAP1 JUMP JUMPDEST SWAP3 POP PUSH2 0x23CC JUMP JUMPDEST PUSH1 0x0 DUP3 PUSH1 0x2 DUP2 GT ISZERO PUSH2 0x21C4 JUMPI PUSH2 0x21C4 PUSH2 0x2E02 JUMP JUMPDEST SUB PUSH2 0x2233 JUMPI PUSH1 0x40 MLOAD PUSH32 0x13B3A2A100000000000000000000000000000000000000000000000000000000 DUP2 MSTORE PUSH20 0xFFFFFFFFFFFFFFFFFFFFFFFFFFFFFFFFFFFFFFFF PUSH32 0x0 AND PUSH1 0x4 DUP3 ADD MSTORE PUSH1 0x24 ADD PUSH2 0x62C JUMP JUMPDEST PUSH1 0x1 DUP3 PUSH1 0x2 DUP2 GT ISZERO PUSH2 0x2247 JUMPI PUSH2 0x2247 PUSH2 0x2E02 JUMP JUMPDEST EQ DUP1 ISZERO PUSH2 0x2265 JUMPI POP PUSH1 0x0 DUP2 PUSH1 0x2 DUP2 GT ISZERO PUSH2 0x2263 JUMPI PUSH2 0x2263 PUSH2 0x2E02 JUMP JUMPDEST EQ JUMPDEST ISZERO PUSH2 0x227E JUMPI PUSH2 0x21A9 CHAINID DUP6 PUSH1 0x0 SWAP2 DUP3 MSTORE PUSH1 0x20 MSTORE PUSH1 0x40 SWAP1 KECCAK256 SWAP1 JUMP JUMPDEST PUSH1 0x1 DUP3 PUSH1 0x2 DUP2 GT ISZERO PUSH2 0x2292 JUMPI PUSH2 0x2292 PUSH2 0x2E02 JUMP JUMPDEST EQ DUP1 ISZERO PUSH2 0x22B0 JUMPI POP PUSH1 0x2 DUP2 PUSH1 0x2 DUP2 GT ISZERO PUSH2 0x22AE JUMPI PUSH2 0x22AE PUSH2 0x2E02 JUMP JUMPDEST EQ JUMPDEST ISZERO PUSH2 0x231F JUMPI PUSH1 0x40 MLOAD PUSH32 0x13B3A2A100000000000000000000000000000000000000000000000000000000 DUP2 MSTORE PUSH20 0xFFFFFFFFFFFFFFFFFFFFFFFFFFFFFFFFFFFFFFFF PUSH32 0x0 AND PUSH1 0x4 DUP3 ADD MSTORE PUSH1 0x24 ADD PUSH2 0x62C JUMP JUMPDEST PUSH2 0x239A PUSH1 0x40 DUP1 MLOAD NUMBER PUSH32 0xFFFFFFFFFFFFFFFFFFFFFFFFFFFFFFFFFFFFFFFFFFFFFFFFFFFFFFFFFFFFFFE0 DUP2 ADD BLOCKHASH PUSH1 0x20 DUP4 ADD MSTORE COINBASE SWAP3 DUP3 ADD SWAP3 SWAP1 SWAP3 MSTORE PUSH1 0x60 DUP2 ADD SWAP2 SWAP1 SWAP2 MSTORE TIMESTAMP PUSH1 0x80 DUP3 ADD MSTORE PREVRANDAO PUSH1 0xA0 DUP3 ADD MSTORE CHAINID PUSH1 0xC0 DUP3 ADD MSTORE CALLER PUSH1 0xE0 DUP3 ADD MSTORE PUSH1 0x0 SWAP1 PUSH2 0x100 ADD PUSH1 0x40 MLOAD PUSH1 0x20 DUP2 DUP4 SUB SUB DUP2 MSTORE SWAP1 PUSH1 0x40 MSTORE DUP1 MLOAD SWAP1 PUSH1 0x20 ADD KECCAK256 SWAP1 POP SWAP1 JUMP JUMPDEST DUP5 SUB PUSH2 0x23A6 JUMPI DUP4 PUSH2 0x23C9 JUMP JUMPDEST PUSH1 0x40 DUP1 MLOAD PUSH1 0x20 DUP2 ADD DUP7 SWAP1 MSTORE ADD PUSH1 0x40 MLOAD PUSH1 0x20 DUP2 DUP4 SUB SUB DUP2 MSTORE SWAP1 PUSH1 0x40 MSTORE DUP1 MLOAD SWAP1 PUSH1 0x20 ADD KECCAK256 JUMPDEST SWAP3 POP JUMPDEST POP POP SWAP2 SWAP1 POP JUMP JUMPDEST PUSH20 0xFFFFFFFFFFFFFFFFFFFFFFFFFFFFFFFFFFFFFFFF DUP2 AND ISZERO DUP1 PUSH2 0x240B JUMPI POP PUSH20 0xFFFFFFFFFFFFFFFFFFFFFFFFFFFFFFFFFFFFFFFF DUP2 AND EXTCODESIZE ISZERO JUMPDEST ISZERO PUSH2 0x247A JUMPI PUSH1 0x40 MLOAD PUSH32 0xC05CEE7A00000000000000000000000000000000000000000000000000000000 DUP2 MSTORE PUSH20 0xFFFFFFFFFFFFFFFFFFFFFFFFFFFFFFFFFFFFFFFF PUSH32 0x0 AND PUSH1 0x4 DUP3 ADD MSTORE PUSH1 0x24 ADD PUSH2 0x62C JUMP JUMPDEST POP JUMP JUMPDEST DUP3 ISZERO DUP1 PUSH2 0x249F JUMPI POP PUSH20 0xFFFFFFFFFFFFFFFFFFFFFFFFFFFFFFFFFFFFFFFF DUP2 AND EXTCODESIZE ISZERO JUMPDEST ISZERO PUSH2 0x24FA JUMPI PUSH32 0x0 DUP3 PUSH1 0x40 MLOAD PUSH32 0xA57CA23900000000000000000000000000000000000000000000000000000000 DUP2 MSTORE PUSH1 0x4 ADD PUSH2 0x62C SWAP3 SWAP2 SWAP1 PUSH2 0x2D94 JUMP JUMPDEST POP POP POP JUMP JUMPDEST DUP2 ISZERO DUP1 PUSH2 0x2520 JUMPI POP PUSH20 0xFFFFFFFFFFFFFFFFFFFFFFFFFFFFFFFFFFFFFFFF DUP2 AND ISZERO JUMPDEST DUP1 PUSH2 0x2540 JUMPI POP PUSH20 0xFFFFFFFFFFFFFFFFFFFFFFFFFFFFFFFFFFFFFFFF DUP2 AND EXTCODESIZE ISZERO JUMPDEST ISZERO PUSH2 0x25AF JUMPI PUSH1 0x40 MLOAD PUSH32 0xC05CEE7A00000000000000000000000000000000000000000000000000000000 DUP2 MSTORE PUSH20 0xFFFFFFFFFFFFFFFFFFFFFFFFFFFFFFFFFFFFFFFF PUSH32 0x0 AND PUSH1 0x4 DUP3 ADD MSTORE PUSH1 0x24 ADD PUSH2 0x62C JUMP JUMPDEST POP POP JUMP JUMPDEST PUSH1 0x0 DUP1 PUSH1 0x60 DUP4 SWAP1 SHR CALLER EQ DUP1 ISZERO PUSH2 0x2610 JUMPI POP DUP3 PUSH1 0x14 BYTE PUSH1 0xF8 SHL PUSH31 0xFFFFFFFFFFFFFFFFFFFFFFFFFFFFFFFFFFFFFFFFFFFFFFFFFFFFFFFFFFFFFF NOT AND PUSH32 0x100000000000000000000000000000000000000000000000000000000000000 EQ JUMPDEST ISZERO PUSH2 0x2620 JUMPI POP PUSH1 0x0 SWAP1 POP DUP1 SWAP2 POP SWAP2 JUMP JUMPDEST PUSH1 0x60 DUP4 SWAP1 SHR CALLER EQ DUP1 ISZERO PUSH2 0x265A JUMPI POP PUSH32 0xFF00000000000000000000000000000000000000000000000000000000000000 PUSH1 0x14 DUP5 SWAP1 BYTE PUSH1 0xF8 SHL AND ISZERO JUMPDEST ISZERO PUSH2 0x266B JUMPI POP PUSH1 0x0 SWAP1 POP PUSH1 0x1 SWAP2 POP SWAP2 JUMP JUMPDEST CALLER PUSH1 0x60 DUP5 SWAP1 SHR SUB PUSH2 0x2682 JUMPI POP PUSH1 0x0 SWAP1 POP PUSH1 0x2 SWAP2 POP SWAP2 JUMP JUMPDEST PUSH1 0x60 DUP4 SWAP1 SHR ISZERO DUP1 ISZERO PUSH2 0x26DB JUMPI POP DUP3 PUSH1 0x14 BYTE PUSH1 0xF8 SHL PUSH31 0xFFFFFFFFFFFFFFFFFFFFFFFFFFFFFFFFFFFFFFFFFFFFFFFFFFFFFFFFFFFFFF NOT AND PUSH32 0x100000000000000000000000000000000000000000000000000000000000000 EQ JUMPDEST ISZERO PUSH2 0x26EC JUMPI POP PUSH1 0x1 SWAP1 POP PUSH1 0x0 SWAP2 POP SWAP2 JUMP JUMPDEST PUSH1 0x60 DUP4 SWAP1 SHR ISZERO DUP1 ISZERO PUSH2 0x2725 JUMPI POP PUSH32 0xFF00000000000000000000000000000000000000000000000000000000000000 PUSH1 0x14 DUP5 SWAP1 BYTE PUSH1 0xF8 SHL AND ISZERO JUMPDEST ISZERO PUSH2 0x2735 JUMPI POP PUSH1 0x1 SWAP1 POP DUP1 SWAP2 POP SWAP2 JUMP JUMPDEST PUSH1 0x60 DUP4 SWAP1 SHR PUSH2 0x274A JUMPI POP PUSH1 0x1 SWAP1 POP PUSH1 0x2 SWAP2 POP SWAP2 JUMP JUMPDEST DUP3 PUSH1 0x14 BYTE PUSH1 0xF8 SHL PUSH31 0xFFFFFFFFFFFFFFFFFFFFFFFFFFFFFFFFFFFFFFFFFFFFFFFFFFFFFFFFFFFFFF NOT AND PUSH32 0x100000000000000000000000000000000000000000000000000000000000000 SUB PUSH2 0x27A5 JUMPI POP PUSH1 0x2 SWAP1 POP PUSH1 0x0 SWAP2 POP SWAP2 JUMP JUMPDEST DUP3 PUSH1 0x14 BYTE PUSH1 0xF8 SHL PUSH31 0xFFFFFFFFFFFFFFFFFFFFFFFFFFFFFFFFFFFFFFFFFFFFFFFFFFFFFFFFFFFFFF NOT AND PUSH1 0x0 SUB PUSH2 0x27E1 JUMPI POP PUSH1 0x2 SWAP1 POP PUSH1 0x1 SWAP2 POP SWAP2 JUMP JUMPDEST POP PUSH1 0x2 SWAP1 POP DUP1 SWAP2 POP SWAP2 JUMP JUMPDEST PUSH32 0x4E487B7100000000000000000000000000000000000000000000000000000000 PUSH1 0x0 MSTORE PUSH1 0x41 PUSH1 0x4 MSTORE PUSH1 0x24 PUSH1 0x0 REVERT JUMPDEST PUSH1 0x0 DUP3 PUSH1 0x1F DUP4 ADD SLT PUSH2 0x282C JUMPI PUSH1 0x0 DUP1 REVERT JUMPDEST DUP2 CALLDATALOAD PUSH8 0xFFFFFFFFFFFFFFFF DUP1 DUP3 GT ISZERO PUSH2 0x2847 JUMPI PUSH2 0x2847 PUSH2 0x27EC JUMP JUMPDEST PUSH1 0x40 MLOAD PUSH1 0x1F DUP4 ADD PUSH32 0xFFFFFFFFFFFFFFFFFFFFFFFFFFFFFFFFFFFFFFFFFFFFFFFFFFFFFFFFFFFFFFE0 SWAP1 DUP2 AND PUSH1 0x3F ADD AND DUP2 ADD SWAP1 DUP3 DUP3 GT DUP2 DUP4 LT OR ISZERO PUSH2 0x288D JUMPI PUSH2 0x288D PUSH2 0x27EC JUMP JUMPDEST DUP2 PUSH1 0x40 MSTORE DUP4 DUP2 MSTORE DUP7 PUSH1 0x20 DUP6 DUP9 ADD ADD GT ISZERO PUSH2 0x28A6 JUMPI PUSH1 0x0 DUP1 REVERT JUMPDEST DUP4 PUSH1 0x20 DUP8 ADD PUSH1 0x20 DUP4 ADD CALLDATACOPY PUSH1 0x0 PUSH1 0x20 DUP6 DUP4 ADD ADD MSTORE DUP1 SWAP5 POP POP POP POP POP SWAP3 SWAP2 POP POP JUMP JUMPDEST PUSH1 0x0 PUSH1 0x40 DUP3 DUP5 SUB SLT ISZERO PUSH2 0x28D8 JUMPI PUSH1 0x0 DUP1 REVERT JUMPDEST PUSH1 0x40 MLOAD PUSH1 0x40 DUP2 ADD DUP2 DUP2 LT PUSH8 0xFFFFFFFFFFFFFFFF DUP3 GT OR ISZERO PUSH2 0x28FB JUMPI PUSH2 0x28FB PUSH2 0x27EC JUMP JUMPDEST PUSH1 0x40 MSTORE DUP3 CALLDATALOAD DUP2 MSTORE PUSH1 0x20 SWAP3 DUP4 ADD CALLDATALOAD SWAP3 DUP2 ADD SWAP3 SWAP1 SWAP3 MSTORE POP SWAP2 SWAP1 POP JUMP JUMPDEST PUSH1 0x0 DUP1 PUSH1 0x0 DUP1 PUSH1 0xA0 DUP6 DUP8 SUB SLT ISZERO PUSH2 0x292B JUMPI PUSH1 0x0 DUP1 REVERT JUMPDEST DUP5 CALLDATALOAD SWAP4 POP PUSH1 0x20 DUP6 ADD CALLDATALOAD PUSH8 0xFFFFFFFFFFFFFFFF DUP1 DUP3 GT ISZERO PUSH2 0x294A JUMPI PUSH1 0x0 DUP1 REVERT JUMPDEST PUSH2 0x2956 DUP9 DUP4 DUP10 ADD PUSH2 0x281B JUMP JUMPDEST SWAP5 POP PUSH1 0x40 DUP8 ADD CALLDATALOAD SWAP2 POP DUP1 DUP3 GT ISZERO PUSH2 0x296C JUMPI PUSH1 0x0 DUP1 REVERT JUMPDEST POP PUSH2 0x2979 DUP8 DUP3 DUP9 ADD PUSH2 0x281B JUMP JUMPDEST SWAP3 POP POP PUSH2 0x2989 DUP7 PUSH1 0x60 DUP8 ADD PUSH2 0x28C6 JUMP JUMPDEST SWAP1 POP SWAP3 SWAP6 SWAP2 SWAP5 POP SWAP3 POP JUMP JUMPDEST PUSH1 0x0 DUP1 PUSH1 0x40 DUP4 DUP6 SUB SLT ISZERO PUSH2 0x29A7 JUMPI PUSH1 0x0 DUP1 REVERT JUMPDEST DUP3 CALLDATALOAD SWAP2 POP PUSH1 0x20 DUP4 ADD CALLDATALOAD PUSH8 0xFFFFFFFFFFFFFFFF DUP2 GT ISZERO PUSH2 0x29C5 JUMPI PUSH1 0x0 DUP1 REVERT JUMPDEST PUSH2 0x29D1 DUP6 DUP3 DUP7 ADD PUSH2 0x281B JUMP JUMPDEST SWAP2 POP POP SWAP3 POP SWAP3 SWAP1 POP JUMP JUMPDEST PUSH1 0x0 PUSH1 0x20 DUP3 DUP5 SUB SLT ISZERO PUSH2 0x29ED JUMPI PUSH1 0x0 DUP1 REVERT JUMPDEST DUP2 CALLDATALOAD PUSH8 0xFFFFFFFFFFFFFFFF DUP2 GT ISZERO PUSH2 0x2A04 JUMPI PUSH1 0x0 DUP1 REVERT JUMPDEST PUSH2 0x7B3 DUP5 DUP3 DUP6 ADD PUSH2 0x281B JUMP JUMPDEST DUP1 CALLDATALOAD PUSH20 0xFFFFFFFFFFFFFFFFFFFFFFFFFFFFFFFFFFFFFFFF DUP2 AND DUP2 EQ PUSH2 0x2A34 JUMPI PUSH1 0x0 DUP1 REVERT JUMPDEST SWAP2 SWAP1 POP JUMP JUMPDEST PUSH1 0x0 DUP1 PUSH1 0x0 PUSH1 0x60 DUP5 DUP7 SUB SLT ISZERO PUSH2 0x2A4E JUMPI PUSH1 0x0 DUP1 REVERT JUMPDEST DUP4 CALLDATALOAD SWAP3 POP PUSH2 0x2A5E PUSH1 0x20 DUP6 ADD PUSH2 0x2A10 JUMP JUMPDEST SWAP2 POP PUSH1 0x40 DUP5 ADD CALLDATALOAD PUSH8 0xFFFFFFFFFFFFFFFF DUP2 GT ISZERO PUSH2 0x2A7A JUMPI PUSH1 0x0 DUP1 REVERT JUMPDEST PUSH2 0x2A86 DUP7 DUP3 DUP8 ADD PUSH2 0x281B JUMP JUMPDEST SWAP2 POP POP SWAP3 POP SWAP3 POP SWAP3 JUMP JUMPDEST PUSH1 0x0 PUSH1 0x20 DUP3 DUP5 SUB SLT ISZERO PUSH2 0x2AA2 JUMPI PUSH1 0x0 DUP1 REVERT JUMPDEST POP CALLDATALOAD SWAP2 SWAP1 POP JUMP JUMPDEST PUSH1 0x0 DUP1 PUSH1 0x0 PUSH1 0x80 DUP5 DUP7 SUB SLT ISZERO PUSH2 0x2ABE JUMPI PUSH1 0x0 DUP1 REVERT JUMPDEST DUP4 CALLDATALOAD PUSH8 0xFFFFFFFFFFFFFFFF DUP1 DUP3 GT ISZERO PUSH2 0x2AD6 JUMPI PUSH1 0x0 DUP1 REVERT JUMPDEST PUSH2 0x2AE2 DUP8 DUP4 DUP9 ADD PUSH2 0x281B JUMP JUMPDEST SWAP5 POP PUSH1 0x20 DUP7 ADD CALLDATALOAD SWAP2 POP DUP1 DUP3 GT ISZERO PUSH2 0x2AF8 JUMPI PUSH1 0x0 DUP1 REVERT JUMPDEST POP PUSH2 0x2B05 DUP7 DUP3 DUP8 ADD PUSH2 0x281B JUMP JUMPDEST SWAP3 POP POP PUSH2 0x2B15 DUP6 PUSH1 0x40 DUP7 ADD PUSH2 0x28C6 JUMP JUMPDEST SWAP1 POP SWAP3 POP SWAP3 POP SWAP3 JUMP JUMPDEST PUSH1 0x0 DUP1 PUSH1 0x40 DUP4 DUP6 SUB SLT ISZERO PUSH2 0x2B31 JUMPI PUSH1 0x0 DUP1 REVERT JUMPDEST DUP3 CALLDATALOAD SWAP2 POP PUSH2 0x2B41 PUSH1 0x20 DUP5 ADD PUSH2 0x2A10 JUMP JUMPDEST SWAP1 POP SWAP3 POP SWAP3 SWAP1 POP JUMP JUMPDEST PUSH1 0x0 DUP1 PUSH1 0x40 DUP4 DUP6 SUB SLT ISZERO PUSH2 0x2B5D JUMPI PUSH1 0x0 DUP1 REVERT JUMPDEST PUSH2 0x2B66 DUP4 PUSH2 0x2A10 JUMP JUMPDEST SWAP5 PUSH1 0x20 SWAP4 SWAP1 SWAP4 ADD CALLDATALOAD SWAP4 POP POP POP JUMP JUMPDEST PUSH1 0x0 DUP1 PUSH1 0x40 DUP4 DUP6 SUB SLT ISZERO PUSH2 0x2B87 JUMPI PUSH1 0x0 DUP1 REVERT JUMPDEST PUSH2 0x2B90 DUP4 PUSH2 0x2A10 JUMP JUMPDEST SWAP2 POP PUSH1 0x20 DUP4 ADD CALLDATALOAD PUSH8 0xFFFFFFFFFFFFFFFF DUP2 GT ISZERO PUSH2 0x29C5 JUMPI PUSH1 0x0 DUP1 REVERT JUMPDEST PUSH1 0x0 DUP1 PUSH1 0x40 DUP4 DUP6 SUB SLT ISZERO PUSH2 0x2BBF JUMPI PUSH1 0x0 DUP1 REVERT JUMPDEST POP POP DUP1 CALLDATALOAD SWAP3 PUSH1 0x20 SWAP1 SWAP2 ADD CALLDATALOAD SWAP2 POP JUMP JUMPDEST PUSH1 0x0 DUP1 PUSH1 0x0 DUP1 PUSH1 0xA0 DUP6 DUP8 SUB SLT ISZERO PUSH2 0x2BE4 JUMPI PUSH1 0x0 DUP1 REVERT JUMPDEST DUP5 CALLDATALOAD PUSH8 0xFFFFFFFFFFFFFFFF DUP1 DUP3 GT ISZERO PUSH2 0x2BFC JUMPI PUSH1 0x0 DUP1 REVERT JUMPDEST PUSH2 0x2C08 DUP9 DUP4 DUP10 ADD PUSH2 0x281B JUMP JUMPDEST SWAP6 POP PUSH1 0x20 DUP8 ADD CALLDATALOAD SWAP2 POP DUP1 DUP3 GT ISZERO PUSH2 0x2C1E JUMPI PUSH1 0x0 DUP1 REVERT JUMPDEST POP PUSH2 0x2C2B DUP8 DUP3 DUP9 ADD PUSH2 0x281B JUMP JUMPDEST SWAP4 POP POP PUSH2 0x2C3B DUP7 PUSH1 0x40 DUP8 ADD PUSH2 0x28C6 JUMP JUMPDEST SWAP2 POP PUSH2 0x2989 PUSH1 0x80 DUP7 ADD PUSH2 0x2A10 JUMP JUMPDEST PUSH1 0x0 DUP1 PUSH1 0x0 DUP1 PUSH1 0x0 PUSH1 0xC0 DUP7 DUP9 SUB SLT ISZERO PUSH2 0x2C61 JUMPI PUSH1 0x0 DUP1 REVERT JUMPDEST DUP6 CALLDATALOAD SWAP5 POP PUSH1 0x20 DUP7 ADD CALLDATALOAD PUSH8 0xFFFFFFFFFFFFFFFF DUP1 DUP3 GT ISZERO PUSH2 0x2C80 JUMPI PUSH1 0x0 DUP1 REVERT JUMPDEST PUSH2 0x2C8C DUP10 DUP4 DUP11 ADD PUSH2 0x281B JUMP JUMPDEST SWAP6 POP PUSH1 0x40 DUP9 ADD CALLDATALOAD SWAP2 POP DUP1 DUP3 GT ISZERO PUSH2 0x2CA2 JUMPI PUSH1 0x0 DUP1 REVERT JUMPDEST POP PUSH2 0x2CAF DUP9 DUP3 DUP10 ADD PUSH2 0x281B JUMP JUMPDEST SWAP4 POP POP PUSH2 0x2CBF DUP8 PUSH1 0x60 DUP9 ADD PUSH2 0x28C6 JUMP JUMPDEST SWAP2 POP PUSH2 0x2CCD PUSH1 0xA0 DUP8 ADD PUSH2 0x2A10 JUMP JUMPDEST SWAP1 POP SWAP3 SWAP6 POP SWAP3 SWAP6 SWAP1 SWAP4 POP JUMP JUMPDEST PUSH1 0x0 DUP1 PUSH1 0x0 PUSH1 0x60 DUP5 DUP7 SUB SLT ISZERO PUSH2 0x2CEE JUMPI PUSH1 0x0 DUP1 REVERT JUMPDEST DUP4 CALLDATALOAD SWAP3 POP PUSH1 0x20 DUP5 ADD CALLDATALOAD SWAP2 POP PUSH2 0x2B15 PUSH1 0x40 DUP6 ADD PUSH2 0x2A10 JUMP JUMPDEST PUSH1 0x0 JUMPDEST DUP4 DUP2 LT ISZERO PUSH2 0x2D20 JUMPI DUP2 DUP2 ADD MLOAD DUP4 DUP3 ADD MSTORE PUSH1 0x20 ADD PUSH2 0x2D08 JUMP JUMPDEST POP POP PUSH1 0x0 SWAP2 ADD MSTORE JUMP JUMPDEST PUSH1 0x0 DUP3 MLOAD PUSH2 0x2D3B DUP2 DUP5 PUSH1 0x20 DUP8 ADD PUSH2 0x2D05 JUMP JUMPDEST SWAP2 SWAP1 SWAP2 ADD SWAP3 SWAP2 POP POP JUMP JUMPDEST PUSH8 0xFFFFFFFFFFFFFFFF DUP3 DUP2 AND DUP3 DUP3 AND SUB SWAP1 DUP1 DUP3 GT ISZERO PUSH2 0x2D8D JUMPI PUSH32 0x4E487B7100000000000000000000000000000000000000000000000000000000 PUSH1 0x0 MSTORE PUSH1 0x11 PUSH1 0x4 MSTORE PUSH1 0x24 PUSH1 0x0 REVERT JUMPDEST POP SWAP3 SWAP2 POP POP JUMP JUMPDEST PUSH20 0xFFFFFFFFFFFFFFFFFFFFFFFFFFFFFFFFFFFFFFFF DUP4 AND DUP2 MSTORE PUSH1 0x40 PUSH1 0x20 DUP3 ADD MSTORE PUSH1 0x0 DUP3 MLOAD DUP1 PUSH1 0x40 DUP5 ADD MSTORE PUSH2 0x2DCF DUP2 PUSH1 0x60 DUP6 ADD PUSH1 0x20 DUP8 ADD PUSH2 0x2D05 JUMP JUMPDEST PUSH1 0x1F ADD PUSH32 0xFFFFFFFFFFFFFFFFFFFFFFFFFFFFFFFFFFFFFFFFFFFFFFFFFFFFFFFFFFFFFFE0 AND SWAP2 SWAP1 SWAP2 ADD PUSH1 0x60 ADD SWAP4 SWAP3 POP POP POP JUMP JUMPDEST PUSH32 0x4E487B7100000000000000000000000000000000000000000000000000000000 PUSH1 0x0 MSTORE PUSH1 0x21 PUSH1 0x4 MSTORE PUSH1 0x24 PUSH1 0x0 REVERT INVALID LOG1 PUSH5 0x736F6C6343 STOP ADDMOD OR STOP EXP "},"methodIdentifiers":{"computeCreate2Address(bytes32,bytes32)":"890c283b","computeCreate2Address(bytes32,bytes32,address)":"d323826a","computeCreate3Address(bytes32)":"6cec2536","computeCreate3Address(bytes32,address)":"42d654fc","computeCreateAddress(address,uint256)":"74637a7a","computeCreateAddress(uint256)":"28ddd046","deployCreate(bytes)":"27fe1822","deployCreate2(bytes)":"26a32fc7","deployCreate2(bytes32,bytes)":"26307668","deployCreate2AndInit(bytes,bytes,(uint256,uint256))":"c3fe107b","deployCreate2AndInit(bytes,bytes,(uint256,uint256),address)":"e437252a","deployCreate2AndInit(bytes32,bytes,bytes,(uint256,uint256))":"e96deee4","deployCreate2AndInit(bytes32,bytes,bytes,(uint256,uint256),address)":"a7db93f2","deployCreate2Clone(address,bytes)":"81503da1","deployCreate2Clone(bytes32,address,bytes)":"2852527a","deployCreate3(bytes)":"7f565360","deployCreate3(bytes32,bytes)":"9c36a286","deployCreate3AndInit(bytes,bytes,(uint256,uint256))":"2f990e3f","deployCreate3AndInit(bytes,bytes,(uint256,uint256),address)":"f5745aba","deployCreate3AndInit(bytes32,bytes,bytes,(uint256,uint256))":"00d84acb","deployCreate3AndInit(bytes32,bytes,bytes,(uint256,uint256),address)":"ddda0acb","deployCreateAndInit(bytes,bytes,(uint256,uint256))":"31a7c8c8","deployCreateAndInit(bytes,bytes,(uint256,uint256),address)":"98e81077","deployCreateClone(address,bytes)":"f9664498"}}}}}